{
  "_format": "hh-sol-artifact-1",
  "contractName": "BingoSBT",
  "sourceName": "contracts/BingoSBT.sol",
  "abi": [
    {
      "inputs": [],
      "stateMutability": "nonpayable",
      "type": "constructor"
    },
    {
      "anonymous": false,
      "inputs": [
        {
          "indexed": true,
          "internalType": "address",
          "name": "_to",
          "type": "address"
        },
        {
          "indexed": true,
          "internalType": "uint256",
          "name": "_tokenId",
          "type": "uint256"
        }
      ],
      "name": "Attest",
      "type": "event"
    },
    {
      "anonymous": false,
      "inputs": [
        {
          "indexed": true,
          "internalType": "address",
          "name": "_to",
          "type": "address"
        },
        {
          "indexed": true,
          "internalType": "uint256",
          "name": "_tokenId",
          "type": "uint256"
        }
      ],
      "name": "Revoke",
      "type": "event"
    },
    {
      "inputs": [
        {
          "internalType": "address",
          "name": "_owner",
          "type": "address"
        }
      ],
      "name": "addOwner",
      "outputs": [],
      "stateMutability": "nonpayable",
      "type": "function"
    },
    {
      "inputs": [
        {
          "internalType": "uint256",
          "name": "_tokenId",
          "type": "uint256"
        }
      ],
      "name": "burn",
      "outputs": [],
      "stateMutability": "nonpayable",
      "type": "function"
    },
    {
      "inputs": [
        {
          "internalType": "address",
          "name": "_ownerToken",
          "type": "address"
        }
      ],
      "name": "isOwnerOfSBT",
      "outputs": [
        {
          "internalType": "bool",
          "name": "isOwner",
          "type": "bool"
        }
      ],
      "stateMutability": "view",
      "type": "function"
    },
    {
      "inputs": [
        {
          "internalType": "address",
          "name": "issuee",
          "type": "address"
        },
        {
          "internalType": "string",
          "name": "uri",
          "type": "string"
        }
      ],
      "name": "mint",
      "outputs": [],
      "stateMutability": "nonpayable",
      "type": "function"
    },
    {
      "inputs": [],
      "name": "name",
      "outputs": [
        {
          "internalType": "string",
          "name": "",
          "type": "string"
        }
      ],
      "stateMutability": "view",
      "type": "function"
    },
    {
      "inputs": [
        {
          "internalType": "uint256",
          "name": "tokenId",
          "type": "uint256"
        }
      ],
      "name": "ownerOf",
      "outputs": [
        {
          "internalType": "address",
          "name": "",
          "type": "address"
        }
      ],
      "stateMutability": "view",
      "type": "function"
    },
    {
      "inputs": [
        {
          "internalType": "bytes4",
          "name": "interfaceId",
          "type": "bytes4"
        }
      ],
      "name": "supportsInterface",
      "outputs": [
        {
          "internalType": "bool",
          "name": "",
          "type": "bool"
        }
      ],
      "stateMutability": "view",
      "type": "function"
    },
    {
      "inputs": [],
      "name": "symbol",
      "outputs": [
        {
          "internalType": "string",
          "name": "",
          "type": "string"
        }
      ],
      "stateMutability": "view",
      "type": "function"
    },
    {
      "inputs": [
        {
          "internalType": "uint256",
          "name": "tokenId",
          "type": "uint256"
        }
      ],
      "name": "tokenURI",
      "outputs": [
        {
          "internalType": "string",
          "name": "",
          "type": "string"
        }
      ],
      "stateMutability": "view",
      "type": "function"
    },
    {
      "inputs": [
        {
          "internalType": "address",
          "name": "_newOwner",
          "type": "address"
        }
      ],
      "name": "transferOwnership",
      "outputs": [],
      "stateMutability": "nonpayable",
      "type": "function"
    }
  ],
  "bytecode": "0x60806040523480156200001157600080fd5b506040518060400160405280600881526020017f42696e676f5342540000000000000000000000000000000000000000000000008152506040518060400160405280600481526020017f425342540000000000000000000000000000000000000000000000000000000081525081600090805190602001906200009692919062000110565b508060019080519060200190620000af92919062000110565b5050506001600560003373ffffffffffffffffffffffffffffffffffffffff1673ffffffffffffffffffffffffffffffffffffffff16815260200190815260200160002060006101000a81548160ff02191690831515021790555062000225565b8280546200011e90620001ef565b90600052602060002090601f0160209004810192826200014257600085556200018e565b82601f106200015d57805160ff19168380011785556200018e565b828001600101855582156200018e579182015b828111156200018d57825182559160200191906001019062000170565b5b5090506200019d9190620001a1565b5090565b5b80821115620001bc576000816000905550600101620001a2565b5090565b7f4e487b7100000000000000000000000000000000000000000000000000000000600052602260045260246000fd5b600060028204905060018216806200020857607f821691505b602082108114156200021f576200021e620001c0565b5b50919050565b61146c80620002356000396000f3fe608060405234801561001057600080fd5b506004361061009e5760003560e01c806395d89b411161006657806395d89b4114610159578063c87b56dd14610177578063d0def521146101a7578063e0ab15b4146101c3578063f2fde38b146101f35761009e565b806301ffc9a7146100a357806306fdde03146100d357806342966c68146100f15780636352211e1461010d5780637065cb481461013d575b600080fd5b6100bd60048036038101906100b89190610ebb565b61020f565b6040516100ca9190610f03565b60405180910390f35b6100db6102f1565b6040516100e89190610fb7565b60405180910390f35b61010b6004803603810190610106919061100f565b610383565b005b6101276004803603810190610122919061100f565b610405565b604051610134919061107d565b60405180910390f35b610157600480360381019061015291906110c4565b6104b7565b005b610161610568565b60405161016e9190610fb7565b60405180910390f35b610191600480360381019061018c919061100f565b6105fa565b60405161019e9190610fb7565b60405180910390f35b6101c160048036038101906101bc9190611156565b6106e7565b005b6101dd60048036038101906101d891906110c4565b610829565b6040516101ea9190610f03565b60405180910390f35b61020d600480360381019061020891906110c4565b6108ee565b005b60007f5b5e139f000000000000000000000000000000000000000000000000000000007bffffffffffffffffffffffffffffffffffffffffffffffffffffffff1916827bffffffffffffffffffffffffffffffffffffffffffffffffffffffff191614806102da57507f21c44d76000000000000000000000000000000000000000000000000000000007bffffffffffffffffffffffffffffffffffffffffffffffffffffffff1916827bffffffffffffffffffffffffffffffffffffffffffffffffffffffff1916145b806102ea57506102e9826109f7565b5b9050919050565b606060008054610300906111e5565b80601f016020809104026020016040519081016040528092919081815260200182805461032c906111e5565b80156103795780601f1061034e57610100808354040283529160200191610379565b820191906000526020600020905b81548152906001019060200180831161035c57829003601f168201915b5050505050905090565b61038c81610405565b73ffffffffffffffffffffffffffffffffffffffff163373ffffffffffffffffffffffffffffffffffffffff16146103f9576040517f08c379a00000000000000000000000000000000000000000000000000000000081526004016103f090611263565b60405180910390fd5b61040281610a61565b50565b6000806002600084815260200190815260200160002060009054906101000a900473ffffffffffffffffffffffffffffffffffffffff169050600073ffffffffffffffffffffffffffffffffffffffff168173ffffffffffffffffffffffffffffffffffffffff1614156104ae576040517f08c379a00000000000000000000000000000000000000000000000000000000081526004016104a5906112cf565b60405180910390fd5b80915050919050565b600560003373ffffffffffffffffffffffffffffffffffffffff1673ffffffffffffffffffffffffffffffffffffffff16815260200190815260200160002060009054906101000a900460ff1661050d57600080fd5b6001600560008373ffffffffffffffffffffffffffffffffffffffff1673ffffffffffffffffffffffffffffffffffffffff16815260200190815260200160002060006101000a81548160ff02191690831515021790555050565b606060018054610577906111e5565b80601f01602080910402602001604051908101604052809291908181526020018280546105a3906111e5565b80156105f05780601f106105c5576101008083540402835291602001916105f0565b820191906000526020600020905b8154815290600101906020018083116105d357829003601f168201915b5050505050905090565b606061060582610b0b565b610644576040517f08c379a000000000000000000000000000000000000000000000000000000000815260040161063b9061133b565b60405180910390fd5b600360008381526020019081526020016000208054610662906111e5565b80601f016020809104026020016040519081016040528092919081815260200182805461068e906111e5565b80156106db5780601f106106b0576101008083540402835291602001916106db565b820191906000526020600020905b8154815290600101906020018083116106be57829003601f168201915b50505050509050919050565b600560003373ffffffffffffffffffffffffffffffffffffffff1673ffffffffffffffffffffffffffffffffffffffff16815260200190815260200160002060009054906101000a900460ff1661073d57600080fd5b6107958361074b6004610b77565b84848080601f016020809104026020016040519081016040528093929190818152602001838380828437600081840152601f19601f82011690508083019250505050505050610b85565b506107a06004610c98565b6001600660008573ffffffffffffffffffffffffffffffffffffffff1673ffffffffffffffffffffffffffffffffffffffff16815260200190815260200160002060006101000a81548160ff021916908315150217905550610824604051806060016040528060228152602001611415602291398461081f6004610b77565b610cae565b505050565b60008073ffffffffffffffffffffffffffffffffffffffff168273ffffffffffffffffffffffffffffffffffffffff16141561089a576040517f08c379a0000000000000000000000000000000000000000000000000000000008152600401610891906112cf565b60405180910390fd5b600660008373ffffffffffffffffffffffffffffffffffffffff1673ffffffffffffffffffffffffffffffffffffffff16815260200190815260200160002060009054906101000a900460ff169050919050565b600560003373ffffffffffffffffffffffffffffffffffffffff1673ffffffffffffffffffffffffffffffffffffffff16815260200190815260200160002060009054906101000a900460ff1661094457600080fd5b6001600560008373ffffffffffffffffffffffffffffffffffffffff1673ffffffffffffffffffffffffffffffffffffffff16815260200190815260200160002060006101000a81548160ff0219169083151502179055506000600560003373ffffffffffffffffffffffffffffffffffffffff1673ffffffffffffffffffffffffffffffffffffffff16815260200190815260200160002060006101000a81548160ff02191690831515021790555050565b60007f01ffc9a7000000000000000000000000000000000000000000000000000000007bffffffffffffffffffffffffffffffffffffffffffffffffffffffff1916827bffffffffffffffffffffffffffffffffffffffffffffffffffffffff1916149050919050565b6000610a6c82610405565b90506002600083815260200190815260200160002060006101000a81549073ffffffffffffffffffffffffffffffffffffffff0219169055600360008381526020019081526020016000206000610ac39190610d76565b818173ffffffffffffffffffffffffffffffffffffffff167fec9ab91322523c899ede7830ec9bfc992b5981cdcc27b91162fb23de5791117b60405160405180910390a35050565b60008073ffffffffffffffffffffffffffffffffffffffff166002600084815260200190815260200160002060009054906101000a900473ffffffffffffffffffffffffffffffffffffffff1673ffffffffffffffffffffffffffffffffffffffff1614159050919050565b600081600001549050919050565b6000610b9083610b0b565b15610bd0576040517f08c379a0000000000000000000000000000000000000000000000000000000008152600401610bc7906113a7565b60405180910390fd5b836002600085815260200190815260200160002060006101000a81548173ffffffffffffffffffffffffffffffffffffffff021916908373ffffffffffffffffffffffffffffffffffffffff16021790555081600360008581526020019081526020016000209080519060200190610c49929190610db6565b50828473ffffffffffffffffffffffffffffffffffffffff167fe9274a84b19e9428826de6bae8c48329354f8f0e73f771b97cae2d9dccd45a2760405160405180910390a38290509392505050565b6001816000016000828254019250508190555050565b610d48838383604051602401610cc6939291906113d6565b6040516020818303038152906040527f07c81217000000000000000000000000000000000000000000000000000000007bffffffffffffffffffffffffffffffffffffffffffffffffffffffff19166020820180517bffffffffffffffffffffffffffffffffffffffffffffffffffffffff8381831617835250505050610d4d565b505050565b60008151905060006a636f6e736f6c652e6c6f679050602083016000808483855afa5050505050565b508054610d82906111e5565b6000825580601f10610d945750610db3565b601f016020900490600052602060002090810190610db29190610e3c565b5b50565b828054610dc2906111e5565b90600052602060002090601f016020900481019282610de45760008555610e2b565b82601f10610dfd57805160ff1916838001178555610e2b565b82800160010185558215610e2b579182015b82811115610e2a578251825591602001919060010190610e0f565b5b509050610e389190610e3c565b5090565b5b80821115610e55576000816000905550600101610e3d565b5090565b600080fd5b600080fd5b60007fffffffff0000000000000000000000000000000000000000000000000000000082169050919050565b610e9881610e63565b8114610ea357600080fd5b50565b600081359050610eb581610e8f565b92915050565b600060208284031215610ed157610ed0610e59565b5b6000610edf84828501610ea6565b91505092915050565b60008115159050919050565b610efd81610ee8565b82525050565b6000602082019050610f186000830184610ef4565b92915050565b600081519050919050565b600082825260208201905092915050565b60005b83811015610f58578082015181840152602081019050610f3d565b83811115610f67576000848401525b50505050565b6000601f19601f8301169050919050565b6000610f8982610f1e565b610f938185610f29565b9350610fa3818560208601610f3a565b610fac81610f6d565b840191505092915050565b60006020820190508181036000830152610fd18184610f7e565b905092915050565b6000819050919050565b610fec81610fd9565b8114610ff757600080fd5b50565b60008135905061100981610fe3565b92915050565b60006020828403121561102557611024610e59565b5b600061103384828501610ffa565b91505092915050565b600073ffffffffffffffffffffffffffffffffffffffff82169050919050565b60006110678261103c565b9050919050565b6110778161105c565b82525050565b6000602082019050611092600083018461106e565b92915050565b6110a18161105c565b81146110ac57600080fd5b50565b6000813590506110be81611098565b92915050565b6000602082840312156110da576110d9610e59565b5b60006110e8848285016110af565b91505092915050565b600080fd5b600080fd5b600080fd5b60008083601f840112611116576111156110f1565b5b8235905067ffffffffffffffff811115611133576111326110f6565b5b60208301915083600182028301111561114f5761114e6110fb565b5b9250929050565b60008060006040848603121561116f5761116e610e59565b5b600061117d868287016110af565b935050602084013567ffffffffffffffff81111561119e5761119d610e5e565b5b6111aa86828701611100565b92509250509250925092565b7f4e487b7100000000000000000000000000000000000000000000000000000000600052602260045260246000fd5b600060028204905060018216806111fd57607f821691505b60208210811415611211576112106111b6565b5b50919050565b7f6275726e3a2073656e646572206d757374206265206f776e6572000000000000600082015250565b600061124d601a83610f29565b915061125882611217565b602082019050919050565b6000602082019050818103600083015261127c81611240565b9050919050565b7f6f776e65724f663a20746f6b656e20646f65736e277420657869737400000000600082015250565b60006112b9601c83610f29565b91506112c482611283565b602082019050919050565b600060208201905081810360008301526112e8816112ac565b9050919050565b7f746f6b656e5552493a20746f6b656e20646f65736e2774206578697374000000600082015250565b6000611325601d83610f29565b9150611330826112ef565b602082019050919050565b6000602082019050818103600083015261135481611318565b9050919050565b7f6d696e743a20746f6b656e494420657869737473000000000000000000000000600082015250565b6000611391601483610f29565b915061139c8261135b565b602082019050919050565b600060208201905081810360008301526113c081611384565b9050919050565b6113d081610fd9565b82525050565b600060608201905081810360008301526113f08186610f7e565b90506113ff602083018561106e565b61140c60408301846113c7565b94935050505056fe534254204d696e74656420746f3a202573207769746820746f6b656e49443a202573a26469706673582212200464e7ff7644fd644329a0340e2cc35618d19eb76cfa8bd29f7f2f9ca610e31a64736f6c63430008090033",
  "linkReferences": {},
  "deployedLinkReferences": {}
}