{
  "_format": "hh-sol-artifact-1",
  "contractName": "BingoGameFactory",
  "sourceName": "contracts/BingoGameFactory.sol",
  "abi": [
    {
      "inputs": [
        {
          "internalType": "address",
          "name": "_bingoGame",
          "type": "address"
        },
        {
          "internalType": "address",
          "name": "_bingoBoardNFT",
          "type": "address"
        },
        {
          "internalType": "address",
          "name": "_bingoSBT",
          "type": "address"
        }
      ],
      "stateMutability": "nonpayable",
      "type": "constructor"
    },
    {
      "anonymous": false,
      "inputs": [
        {
          "indexed": false,
          "internalType": "uint256",
          "name": "gameUUID",
          "type": "uint256"
        },
        {
          "indexed": false,
          "internalType": "address",
          "name": "bingoGameContract",
          "type": "address"
        },
        {
          "indexed": false,
          "internalType": "uint256",
          "name": "jackpot",
          "type": "uint256"
        },
        {
          "indexed": false,
          "internalType": "address[]",
          "name": "players",
          "type": "address[]"
        }
      ],
      "name": "GameCreated",
      "type": "event"
    },
    {
      "anonymous": false,
      "inputs": [
        {
          "indexed": false,
          "internalType": "uint256",
          "name": "gameUUID",
          "type": "uint256"
        },
        {
          "indexed": false,
          "internalType": "uint256",
          "name": "weiBuyIn",
          "type": "uint256"
        },
        {
          "indexed": false,
          "internalType": "uint8",
          "name": "numPlayersRequired",
          "type": "uint8"
        },
        {
          "indexed": false,
          "internalType": "uint8",
          "name": "minDrawTimeIntervalSec",
          "type": "uint8"
        }
      ],
      "name": "GameProposed",
      "type": "event"
    },
    {
      "anonymous": false,
      "inputs": [
        {
          "indexed": false,
          "internalType": "uint256",
          "name": "gameUUID",
          "type": "uint256"
        },
        {
          "indexed": false,
          "internalType": "address",
          "name": "player",
          "type": "address"
        }
      ],
      "name": "PlayerJoinedProposal",
      "type": "event"
    },
    {
      "inputs": [],
      "name": "MAX_CARDS_PER_PLAYER",
      "outputs": [
        {
          "internalType": "uint256",
          "name": "",
          "type": "uint256"
        }
      ],
      "stateMutability": "view",
      "type": "function"
    },
    {
      "inputs": [],
      "name": "MAX_DRAW_INTERVAL_SEC",
      "outputs": [
        {
          "internalType": "uint8",
          "name": "",
          "type": "uint8"
        }
      ],
      "stateMutability": "view",
      "type": "function"
    },
    {
      "inputs": [],
      "name": "MIN_NUM_PLAYERS",
      "outputs": [
        {
          "internalType": "uint8",
          "name": "",
          "type": "uint8"
        }
      ],
      "stateMutability": "view",
      "type": "function"
    },
    {
      "inputs": [],
      "name": "MIN_WEI_BUY_IN",
      "outputs": [
        {
          "internalType": "uint256",
          "name": "",
          "type": "uint256"
        }
      ],
      "stateMutability": "view",
      "type": "function"
    },
    {
      "inputs": [],
      "name": "bingoBoardNFT",
      "outputs": [
        {
          "internalType": "contract IBingoBoardNFT",
          "name": "",
          "type": "address"
        }
      ],
      "stateMutability": "view",
      "type": "function"
    },
    {
      "inputs": [],
      "name": "bingoGame",
      "outputs": [
        {
          "internalType": "contract IBingoGame",
          "name": "",
          "type": "address"
        }
      ],
      "stateMutability": "view",
      "type": "function"
    },
    {
      "inputs": [],
      "name": "bingoSBT",
      "outputs": [
        {
          "internalType": "contract IBingoSBT",
          "name": "",
          "type": "address"
        }
      ],
      "stateMutability": "view",
      "type": "function"
    },
    {
      "inputs": [
        {
          "internalType": "uint256",
          "name": "weiBuyIn",
          "type": "uint256"
        },
        {
          "internalType": "uint8",
          "name": "minDrawTimeIntervalSec",
          "type": "uint8"
        },
        {
          "internalType": "uint8",
          "name": "numPlayersRequired",
          "type": "uint8"
        },
        {
          "internalType": "uint8",
          "name": "numCardsDesired",
          "type": "uint8"
        }
      ],
      "name": "createGameProposal",
      "outputs": [],
      "stateMutability": "payable",
      "type": "function"
    },
    {
      "inputs": [
        {
          "internalType": "uint256",
          "name": "",
          "type": "uint256"
        }
      ],
      "name": "createdGames",
      "outputs": [
        {
          "internalType": "address",
          "name": "",
          "type": "address"
        }
      ],
      "stateMutability": "view",
      "type": "function"
    },
    {
      "inputs": [
        {
          "internalType": "uint256",
          "name": "",
          "type": "uint256"
        }
      ],
      "name": "gameClonesByUUID",
      "outputs": [
        {
          "internalType": "address",
          "name": "",
          "type": "address"
        }
      ],
      "stateMutability": "view",
      "type": "function"
    },
    {
      "inputs": [],
      "name": "getActiveGameProposals",
      "outputs": [
        {
          "components": [
            {
              "internalType": "uint256",
              "name": "gameUUID",
              "type": "uint256"
            },
            {
              "internalType": "uint256",
              "name": "weiBuyIn",
              "type": "uint256"
            },
            {
              "internalType": "uint256",
              "name": "totalCardCount",
              "type": "uint256"
            },
            {
              "internalType": "uint8",
              "name": "minDrawTimeIntervalSec",
              "type": "uint8"
            },
            {
              "internalType": "uint8",
              "name": "numPlayersRequired",
              "type": "uint8"
            },
            {
              "internalType": "uint8",
              "name": "numPlayersSignedUp",
              "type": "uint8"
            },
            {
              "internalType": "address[]",
              "name": "playersSignedUp",
              "type": "address[]"
            }
          ],
          "internalType": "struct BingoGameFactory.GameProposalProperties[]",
          "name": "gameProposalProperties",
          "type": "tuple[]"
        }
      ],
      "stateMutability": "view",
      "type": "function"
    },
    {
      "inputs": [],
      "name": "getCreatedGames",
      "outputs": [
        {
          "internalType": "address[]",
          "name": "_createdGames",
          "type": "address[]"
        }
      ],
      "stateMutability": "view",
      "type": "function"
    },
    {
      "inputs": [
        {
          "internalType": "uint256",
          "name": "gameUUID",
          "type": "uint256"
        },
        {
          "internalType": "uint8",
          "name": "numCardsDesired",
          "type": "uint8"
        }
      ],
      "name": "joinGameProposal",
      "outputs": [],
      "stateMutability": "payable",
      "type": "function"
    }
  ],
  "bytecode": "0x60806040523480156200001157600080fd5b50604051620029743803806200297483398181016040528101906200003791906200016c565b826000806101000a81548173ffffffffffffffffffffffffffffffffffffffff021916908373ffffffffffffffffffffffffffffffffffffffff16021790555081600160006101000a81548173ffffffffffffffffffffffffffffffffffffffff021916908373ffffffffffffffffffffffffffffffffffffffff16021790555080600260006101000a81548173ffffffffffffffffffffffffffffffffffffffff021916908373ffffffffffffffffffffffffffffffffffffffff160217905550505050620001c8565b600080fd5b600073ffffffffffffffffffffffffffffffffffffffff82169050919050565b6000620001348262000107565b9050919050565b620001468162000127565b81146200015257600080fd5b50565b60008151905062000166816200013b565b92915050565b60008060006060848603121562000188576200018762000102565b5b6000620001988682870162000155565b9350506020620001ab8682870162000155565b9250506040620001be8682870162000155565b9150509250925092565b61279c80620001d86000396000f3fe6080604052600436106100c25760003560e01c80638be70d2b1161007f578063bb712eb911610059578063bb712eb914610250578063cba2509d1461027b578063d2b28413146102a6578063e08b3740146102d1576100c2565b80638be70d2b146101bd57806391110d86146101e8578063ae94584714610213576100c2565b8063235e269d146100c757806337bd9c7114610104578063488c3d691461012f5780635366f1351461014b57806362739d0a1461017657806365f9ab3d146101a1575b600080fd5b3480156100d357600080fd5b506100ee60048036038101906100e9919061186f565b6102fc565b6040516100fb91906118dd565b60405180910390f35b34801561011057600080fd5b5061011961032f565b6040516101269190611957565b60405180910390f35b610149600480360381019061014491906119ab565b610355565b005b34801561015757600080fd5b506101606107f5565b60405161016d9190611ad0565b60405180910390f35b34801561018257600080fd5b5061018b6108d3565b6040516101989190611b01565b60405180910390f35b6101bb60048036038101906101b69190611b1c565b6108de565b005b3480156101c957600080fd5b506101d261107e565b6040516101df9190611b6b565b60405180910390f35b3480156101f457600080fd5b506101fd611083565b60405161020a9190611ba7565b60405180910390f35b34801561021f57600080fd5b5061023a6004803603810190610235919061186f565b6110a9565b60405161024791906118dd565b60405180910390f35b34801561025c57600080fd5b506102656110e8565b6040516102729190611b6b565b60405180910390f35b34801561028757600080fd5b506102906110ed565b60405161029d9190611b01565b60405180910390f35b3480156102b257600080fd5b506102bb6110f2565b6040516102c89190611be3565b60405180910390f35b3480156102dd57600080fd5b506102e6611116565b6040516102f39190611de9565b60405180910390f35b60066020528060005260406000206000915054906101000a900473ffffffffffffffffffffffffffffffffffffffff1681565b600260009054906101000a900473ffffffffffffffffffffffffffffffffffffffff1681565b6103936040518060400160405280601481526020017f63726561746547616d6550726f706f73616c28290000000000000000000000008152506112f4565b66038d7ea4c680008410156103dd576040517f08c379a00000000000000000000000000000000000000000000000000000000081526004016103d490611e68565b60405180910390fd5b603c60ff168360ff161115610427576040517f08c379a000000000000000000000000000000000000000000000000000000000815260040161041e90611efa565b60405180910390fd5b600260ff168260ff161015610471576040517f08c379a000000000000000000000000000000000000000000000000000000000815260040161046890611f66565b60405180910390fd5b8060ff16846104809190611fb5565b3410156104c2576040517f08c379a00000000000000000000000000000000000000000000000000000000081526004016104b990612081565b60405180910390fd5b6000600460006104d2600361138d565b8152602001908152602001600020905060068260ff161115610529576040517f08c379a000000000000000000000000000000000000000000000000000000000815260040161052090612113565b60405180910390fd5b610533600361138d565b8160000160000181905550848160000160010181905550838160000160030160006101000a81548160ff021916908360ff16021790555060018160000160030160026101000a81548160ff021916908360ff160217905550828160000160030160016101000a81548160ff021916908360ff16021790555080600001600401339080600181540180825580915050600190039060005260206000200160009091909190916101000a81548173ffffffffffffffffffffffffffffffffffffffff021916908373ffffffffffffffffffffffffffffffffffffffff160217905550818160050160003373ffffffffffffffffffffffffffffffffffffffff1673ffffffffffffffffffffffffffffffffffffffff16815260200190815260200160002060006101000a81548160ff021916908360ff1602179055508160ff16816000016002018190555060005b8260ff1681101561075457600160009054906101000a900473ffffffffffffffffffffffffffffffffffffffff1673ffffffffffffffffffffffffffffffffffffffff1663a14481943384600001600001546040518363ffffffff1660e01b81526004016106ee929190612133565b602060405180830381600087803b15801561070857600080fd5b505af115801561071c573d6000803e3d6000fd5b505050506040513d601f19601f820116820180604052508101906107409190612171565b50808061074c9061219e565b91505061067f565b506107708160000160000154600761139b90919063ffffffff16565b507f4466b407c32a198cd171743bb0204ea32e7318604c2b3427d115d4bb8ad77b91816000016000015482600001600101548360000160030160019054906101000a900460ff168460000160030160009054906101000a900460ff166040516107dc94939291906121e7565b60405180910390a16107ee60036113b5565b5050505050565b606060058054905067ffffffffffffffff8111156108165761081561222c565b5b6040519080825280602002602001820160405280156108445781602001602082028036833780820191505090505b50905060058054806020026020016040519081016040528092919081815260200182805480156108c957602002820191906000526020600020905b8160009054906101000a900473ffffffffffffffffffffffffffffffffffffffff1673ffffffffffffffffffffffffffffffffffffffff168152602001906001019080831161087f575b5050505050905090565b66038d7ea4c6800081565b61091c6040518060400160405280601281526020017f6a6f696e47616d6550726f706f73616c282900000000000000000000000000008152506112f4565b6109308260076113cb90919063ffffffff16565b61096f576040517f08c379a0000000000000000000000000000000000000000000000000000000008152600401610966906122cd565b60405180910390fd5b60006004600084815260200190815260200160002090506006828260050160003373ffffffffffffffffffffffffffffffffffffffff1673ffffffffffffffffffffffffffffffffffffffff16815260200190815260200160002060009054906101000a900460ff166109e291906122ed565b60ff161115610a26576040517f08c379a0000000000000000000000000000000000000000000000000000000008152600401610a1d90612113565b60405180910390fd5b8160ff168160000160010154610a3c9190611fb5565b341015610a7e576040517f08c379a0000000000000000000000000000000000000000000000000000000008152600401610a7590612081565b60405180910390fd5b60008160050160003373ffffffffffffffffffffffffffffffffffffffff1673ffffffffffffffffffffffffffffffffffffffff16815260200190815260200160002060009054906101000a900460ff1660ff161415610b7a5780600001600401339080600181540180825580915050600190039060005260206000200160009091909190916101000a81548173ffffffffffffffffffffffffffffffffffffffff021916908373ffffffffffffffffffffffffffffffffffffffff1602179055507f4ff46dbb9a1301cc8dd2b70c9676db2865f78d242c749d608f0a07d5ece48d918333604051610b71929190612324565b60405180910390a15b818160050160003373ffffffffffffffffffffffffffffffffffffffff1673ffffffffffffffffffffffffffffffffffffffff16815260200190815260200160002060008282829054906101000a900460ff16610bd791906122ed565b92506101000a81548160ff021916908360ff1602179055508160ff16816000016002016000828254610c09919061234d565b9250508190555060005b8260ff16811015610ce157600160009054906101000a900473ffffffffffffffffffffffffffffffffffffffff1673ffffffffffffffffffffffffffffffffffffffff1663a144819433866040518363ffffffff1660e01b8152600401610c7b929190612133565b602060405180830381600087803b158015610c9557600080fd5b505af1158015610ca9573d6000803e3d6000fd5b505050506040513d601f19601f82011682018060405250810190610ccd9190612171565b508080610cd99061219e565b915050610c13565b508060000160030160019054906101000a900460ff1660ff1681600001600401805490501061107957600081600001600201548260000160010154610d269190611fb5565b90506000610d5760008054906101000a900473ffffffffffffffffffffffffffffffffffffffff168660001b6113e5565b9050610d7c6040518060600160405280602f8152602001612738602f913982876114bc565b8073ffffffffffffffffffffffffffffffffffffffff166377cff22d83600160009054906101000a900473ffffffffffffffffffffffffffffffffffffffff16600260009054906101000a900473ffffffffffffffffffffffffffffffffffffffff1687600001600001548860000160030160009054906101000a900460ff166040518663ffffffff1660e01b8152600401610e1b94939291906123d4565b6000604051808303818588803b158015610e3457600080fd5b505af1158015610e48573d6000803e3d6000fd5b50505050506005819080600181540180825580915050600190039060005260206000200160009091909190916101000a81548173ffffffffffffffffffffffffffffffffffffffff021916908373ffffffffffffffffffffffffffffffffffffffff16021790555080600660008560000160000154815260200190815260200160002060006101000a81548173ffffffffffffffffffffffffffffffffffffffff021916908373ffffffffffffffffffffffffffffffffffffffff160217905550600260009054906101000a900473ffffffffffffffffffffffffffffffffffffffff1673ffffffffffffffffffffffffffffffffffffffff16637065cb48826040518263ffffffff1660e01b8152600401610f6491906118dd565b600060405180830381600087803b158015610f7e57600080fd5b505af1158015610f92573d6000803e3d6000fd5b505050507f5d1773d537337c41dba8fc74656e5d12f8403fc01414699061532d4dc63a554d85828486600001600401604051610fd19493929190612505565b60405180910390a1610ff48360000160000154600761155b90919063ffffffff16565b50600460008681526020019081526020016000206000808201600080820160009055600182016000905560028201600090556003820160006101000a81549060ff02191690556003820160016101000a81549060ff02191690556003820160026101000a81549060ff021916905560048201600061107291906117b0565b5050505050505b505050565b600281565b600160009054906101000a900473ffffffffffffffffffffffffffffffffffffffff1681565b600581815481106110b957600080fd5b906000526020600020016000915054906101000a900473ffffffffffffffffffffffffffffffffffffffff1681565b603c81565b600681565b60008054906101000a900473ffffffffffffffffffffffffffffffffffffffff1681565b606060006111246007611575565b90508067ffffffffffffffff8111156111405761113f61222c565b5b60405190808252806020026020018201604052801561117957816020015b6111666117d1565b81526020019060019003908161115e5790505b50915060005b818110156112ef576004600061119f83600761158a90919063ffffffff16565b81526020019081526020016000206000016040518060e00160405290816000820154815260200160018201548152602001600282015481526020016003820160009054906101000a900460ff1660ff1660ff1681526020016003820160019054906101000a900460ff1660ff1660ff1681526020016003820160029054906101000a900460ff1660ff1660ff168152602001600482018054806020026020016040519081016040528092919081815260200182805480156112b557602002820191906000526020600020905b8160009054906101000a900473ffffffffffffffffffffffffffffffffffffffff1673ffffffffffffffffffffffffffffffffffffffff168152602001906001019080831161126b575b5050505050815250508382815181106112d1576112d0612551565b5b602002602001018190525080806112e79061219e565b91505061117f565b505090565b61138a816040516024016113089190612608565b6040516020818303038152906040527f41304fac000000000000000000000000000000000000000000000000000000007bffffffffffffffffffffffffffffffffffffffffffffffffffffffff19166020820180517bffffffffffffffffffffffffffffffffffffffffffffffffffffffff83818316178352505050506115a4565b50565b600081600001549050919050565b60006113ad836000018360001b6115cd565b905092915050565b6001816000016000828254019250508190555050565b60006113dd836000018360001b61163d565b905092915050565b60006040517f3d602d80600a3d3981f3363d3d373d3d3d363d7300000000000000000000000081528360601b60148201527f5af43d82803e903d91602b57fd5bf300000000000000000000000000000000006028820152826037826000f5915050600073ffffffffffffffffffffffffffffffffffffffff168173ffffffffffffffffffffffffffffffffffffffff1614156114b6576040517f08c379a00000000000000000000000000000000000000000000000000000000081526004016114ad90612676565b60405180910390fd5b92915050565b6115568383836040516024016114d493929190612696565b6040516020818303038152906040527f07c81217000000000000000000000000000000000000000000000000000000007bffffffffffffffffffffffffffffffffffffffffffffffffffffffff19166020820180517bffffffffffffffffffffffffffffffffffffffffffffffffffffffff83818316178352505050506115a4565b505050565b600061156d836000018360001b611660565b905092915050565b600061158382600001611774565b9050919050565b60006115998360000183611785565b60001c905092915050565b60008151905060006a636f6e736f6c652e6c6f679050602083016000808483855afa5050505050565b60006115d9838361163d565b611632578260000182908060018154018082558091505060019003906000526020600020016000909190919091505582600001805490508360010160008481526020019081526020016000208190555060019050611637565b600090505b92915050565b600080836001016000848152602001908152602001600020541415905092915050565b6000808360010160008481526020019081526020016000205490506000811461176857600060018261169291906126d4565b90506000600186600001805490506116aa91906126d4565b90508181146117195760008660000182815481106116cb576116ca612551565b5b90600052602060002001549050808760000184815481106116ef576116ee612551565b5b90600052602060002001819055508387600101600083815260200190815260200160002081905550505b8560000180548061172d5761172c612708565b5b60019003818190600052602060002001600090559055856001016000868152602001908152602001600020600090556001935050505061176e565b60009150505b92915050565b600081600001805490509050919050565b600082600001828154811061179d5761179c612551565b5b9060005260206000200154905092915050565b50805460008255906000526020600020908101906117ce9190611817565b50565b6040518060e00160405280600081526020016000815260200160008152602001600060ff168152602001600060ff168152602001600060ff168152602001606081525090565b5b80821115611830576000816000905550600101611818565b5090565b600080fd5b6000819050919050565b61184c81611839565b811461185757600080fd5b50565b60008135905061186981611843565b92915050565b60006020828403121561188557611884611834565b5b60006118938482850161185a565b91505092915050565b600073ffffffffffffffffffffffffffffffffffffffff82169050919050565b60006118c78261189c565b9050919050565b6118d7816118bc565b82525050565b60006020820190506118f260008301846118ce565b92915050565b6000819050919050565b600061191d6119186119138461189c565b6118f8565b61189c565b9050919050565b600061192f82611902565b9050919050565b600061194182611924565b9050919050565b61195181611936565b82525050565b600060208201905061196c6000830184611948565b92915050565b600060ff82169050919050565b61198881611972565b811461199357600080fd5b50565b6000813590506119a58161197f565b92915050565b600080600080608085870312156119c5576119c4611834565b5b60006119d38782880161185a565b94505060206119e487828801611996565b93505060406119f587828801611996565b9250506060611a0687828801611996565b91505092959194509250565b600081519050919050565b600082825260208201905092915050565b6000819050602082019050919050565b611a47816118bc565b82525050565b6000611a598383611a3e565b60208301905092915050565b6000602082019050919050565b6000611a7d82611a12565b611a878185611a1d565b9350611a9283611a2e565b8060005b83811015611ac3578151611aaa8882611a4d565b9750611ab583611a65565b925050600181019050611a96565b5085935050505092915050565b60006020820190508181036000830152611aea8184611a72565b905092915050565b611afb81611839565b82525050565b6000602082019050611b166000830184611af2565b92915050565b60008060408385031215611b3357611b32611834565b5b6000611b418582860161185a565b9250506020611b5285828601611996565b9150509250929050565b611b6581611972565b82525050565b6000602082019050611b806000830184611b5c565b92915050565b6000611b9182611924565b9050919050565b611ba181611b86565b82525050565b6000602082019050611bbc6000830184611b98565b92915050565b6000611bcd82611924565b9050919050565b611bdd81611bc2565b82525050565b6000602082019050611bf86000830184611bd4565b92915050565b600081519050919050565b600082825260208201905092915050565b6000819050602082019050919050565b611c3381611839565b82525050565b611c4281611972565b82525050565b600082825260208201905092915050565b6000611c6482611a12565b611c6e8185611c48565b9350611c7983611a2e565b8060005b83811015611caa578151611c918882611a4d565b9750611c9c83611a65565b925050600181019050611c7d565b5085935050505092915050565b600060e083016000830151611ccf6000860182611c2a565b506020830151611ce26020860182611c2a565b506040830151611cf56040860182611c2a565b506060830151611d086060860182611c39565b506080830151611d1b6080860182611c39565b5060a0830151611d2e60a0860182611c39565b5060c083015184820360c0860152611d468282611c59565b9150508091505092915050565b6000611d5f8383611cb7565b905092915050565b6000602082019050919050565b6000611d7f82611bfe565b611d898185611c09565b935083602082028501611d9b85611c1a565b8060005b85811015611dd75784840389528151611db88582611d53565b9450611dc383611d67565b925060208a01995050600181019050611d9f565b50829750879550505050505092915050565b60006020820190508181036000830152611e038184611d74565b905092915050565b600082825260208201905092915050565b7f4d494e5f5745495f4255595f494e206e6f74206d657400000000000000000000600082015250565b6000611e52601683611e0b565b9150611e5d82611e1c565b602082019050919050565b60006020820190508181036000830152611e8181611e45565b9050919050565b7f6d696e4472617754696d65496e74657276616c536563203e204d41585f44524160008201527f575f494e54455256414c5f534543000000000000000000000000000000000000602082015250565b6000611ee4602e83611e0b565b9150611eef82611e88565b604082019050919050565b60006020820190508181036000830152611f1381611ed7565b9050919050565b7f4d494e5f4e554d5f504c4159455253206e6f74206d6574000000000000000000600082015250565b6000611f50601783611e0b565b9150611f5b82611f1a565b602082019050919050565b60006020820190508181036000830152611f7f81611f43565b9050919050565b7f4e487b7100000000000000000000000000000000000000000000000000000000600052601160045260246000fd5b6000611fc082611839565b9150611fcb83611839565b9250817fffffffffffffffffffffffffffffffffffffffffffffffffffffffffffffffff048311821515161561200457612003611f86565b5b828202905092915050565b7f56616c7565206d757374206265203e3d20776569427579496e202a206e756d4360008201527f6172647344657369726564000000000000000000000000000000000000000000602082015250565b600061206b602b83611e0b565b91506120768261200f565b604082019050919050565b6000602082019050818103600083015261209a8161205e565b9050919050565b7f4d6179206e6f742072657175657374206d6f7265207468616e204d41585f434160008201527f5244535f5045525f504c41594552000000000000000000000000000000000000602082015250565b60006120fd602e83611e0b565b9150612108826120a1565b604082019050919050565b6000602082019050818103600083015261212c816120f0565b9050919050565b600060408201905061214860008301856118ce565b6121556020830184611af2565b9392505050565b60008151905061216b81611843565b92915050565b60006020828403121561218757612186611834565b5b60006121958482850161215c565b91505092915050565b60006121a982611839565b91507fffffffffffffffffffffffffffffffffffffffffffffffffffffffffffffffff8214156121dc576121db611f86565b5b600182019050919050565b60006080820190506121fc6000830187611af2565b6122096020830186611af2565b6122166040830185611b5c565b6122236060830184611b5c565b95945050505050565b7f4e487b7100000000000000000000000000000000000000000000000000000000600052604160045260246000fd5b7f4d7573742073656c65637420616e206163746976652067616d6550726f706f7360008201527f616c000000000000000000000000000000000000000000000000000000000000602082015250565b60006122b7602283611e0b565b91506122c28261225b565b604082019050919050565b600060208201905081810360008301526122e6816122aa565b9050919050565b60006122f882611972565b915061230383611972565b92508260ff0382111561231957612318611f86565b5b828201905092915050565b60006040820190506123396000830185611af2565b61234660208301846118ce565b9392505050565b600061235882611839565b915061236383611839565b9250827fffffffffffffffffffffffffffffffffffffffffffffffffffffffffffffffff0382111561239857612397611f86565b5b828201905092915050565b60006123be6123b96123b484611972565b6118f8565b611839565b9050919050565b6123ce816123a3565b82525050565b60006080820190506123e960008301876118ce565b6123f660208301866118ce565b6124036040830185611af2565b61241060608301846123c5565b95945050505050565b600081549050919050565b60008190508160005260206000209050919050565b60008160001c9050919050565b600073ffffffffffffffffffffffffffffffffffffffff82169050919050565b600061247961247483612439565b612446565b9050919050565b600061248c8254612466565b9050919050565b6000600182019050919050565b60006124ab82612419565b6124b58185611a1d565b93506124c083612424565b8060005b838110156124f8576124d582612480565b6124df8882611a4d565b97506124ea83612493565b9250506001810190506124c4565b5085935050505092915050565b600060808201905061251a6000830187611af2565b61252760208301866118ce565b6125346040830185611af2565b818103606083015261254681846124a0565b905095945050505050565b7f4e487b7100000000000000000000000000000000000000000000000000000000600052603260045260246000fd5b600081519050919050565b60005b838110156125a957808201518184015260208101905061258e565b838111156125b8576000848401525b50505050565b6000601f19601f8301169050919050565b60006125da82612580565b6125e48185611e0b565b93506125f481856020860161258b565b6125fd816125be565b840191505092915050565b6000602082019050818103600083015261262281846125cf565b905092915050565b7f455243313136373a2063726561746532206661696c6564000000000000000000600082015250565b6000612660601783611e0b565b915061266b8261262a565b602082019050919050565b6000602082019050818103600083015261268f81612653565b9050919050565b600060608201905081810360008301526126b081866125cf565b90506126bf60208301856118ce565b6126cc6040830184611af2565b949350505050565b60006126df82611839565b91506126ea83611839565b9250828210156126fd576126fc611f86565b5b828203905092915050565b7f4e487b7100000000000000000000000000000000000000000000000000000000600052603160045260246000fdfe42696e676f47616d65204445504c4f59454420434c4f4e45204020257320776974682047616d65555549443a202573a2646970667358221220674dbd98236cd41b7d91d227f5ffbd4ef34e91af7e94a777067af7916f904fdb64736f6c63430008090033",
  "linkReferences": {},
  "deployedLinkReferences": {}
}