{
  "_format": "hh-sol-artifact-1",
  "contractName": "BingoBoardNFT",
  "sourceName": "contracts/BingoBoardNFT.sol",
  "abi": [
    {
      "inputs": [],
      "stateMutability": "nonpayable",
      "type": "constructor"
    },
    {
      "anonymous": false,
      "inputs": [
        {
          "indexed": true,
          "internalType": "address",
          "name": "owner",
          "type": "address"
        },
        {
          "indexed": true,
          "internalType": "address",
          "name": "approved",
          "type": "address"
        },
        {
          "indexed": true,
          "internalType": "uint256",
          "name": "tokenId",
          "type": "uint256"
        }
      ],
      "name": "Approval",
      "type": "event"
    },
    {
      "anonymous": false,
      "inputs": [
        {
          "indexed": true,
          "internalType": "address",
          "name": "owner",
          "type": "address"
        },
        {
          "indexed": true,
          "internalType": "address",
          "name": "operator",
          "type": "address"
        },
        {
          "indexed": false,
          "internalType": "bool",
          "name": "approved",
          "type": "bool"
        }
      ],
      "name": "ApprovalForAll",
      "type": "event"
    },
    {
      "anonymous": false,
      "inputs": [
        {
          "indexed": true,
          "internalType": "uint256",
          "name": "gameUUID",
          "type": "uint256"
        },
        {
          "indexed": true,
          "internalType": "address",
          "name": "to",
          "type": "address"
        },
        {
          "indexed": true,
          "internalType": "uint256",
          "name": "tokenId",
          "type": "uint256"
        }
      ],
      "name": "BingoBoardNFTMinted",
      "type": "event"
    },
    {
      "anonymous": false,
      "inputs": [
        {
          "indexed": true,
          "internalType": "address",
          "name": "previousOwner",
          "type": "address"
        },
        {
          "indexed": true,
          "internalType": "address",
          "name": "newOwner",
          "type": "address"
        }
      ],
      "name": "OwnershipTransferred",
      "type": "event"
    },
    {
      "anonymous": false,
      "inputs": [
        {
          "indexed": true,
          "internalType": "address",
          "name": "from",
          "type": "address"
        },
        {
          "indexed": true,
          "internalType": "address",
          "name": "to",
          "type": "address"
        },
        {
          "indexed": true,
          "internalType": "uint256",
          "name": "tokenId",
          "type": "uint256"
        }
      ],
      "name": "Transfer",
      "type": "event"
    },
    {
      "inputs": [
        {
          "internalType": "address",
          "name": "to",
          "type": "address"
        },
        {
          "internalType": "uint256",
          "name": "tokenId",
          "type": "uint256"
        }
      ],
      "name": "approve",
      "outputs": [],
      "stateMutability": "nonpayable",
      "type": "function"
    },
    {
      "inputs": [
        {
          "internalType": "address",
          "name": "owner",
          "type": "address"
        }
      ],
      "name": "balanceOf",
      "outputs": [
        {
          "internalType": "uint256",
          "name": "",
          "type": "uint256"
        }
      ],
      "stateMutability": "view",
      "type": "function"
    },
    {
      "inputs": [
        {
          "internalType": "uint256",
          "name": "tokenId",
          "type": "uint256"
        }
      ],
      "name": "getApproved",
      "outputs": [
        {
          "internalType": "address",
          "name": "",
          "type": "address"
        }
      ],
      "stateMutability": "view",
      "type": "function"
    },
    {
      "inputs": [
        {
          "internalType": "uint256",
          "name": "tokenId",
          "type": "uint256"
        }
      ],
      "name": "getBoardAsString",
      "outputs": [
        {
          "internalType": "string",
          "name": "boardStr",
          "type": "string"
        }
      ],
      "stateMutability": "view",
      "type": "function"
    },
    {
      "inputs": [],
      "name": "getOwnedTokenIDs",
      "outputs": [
        {
          "internalType": "uint256[]",
          "name": "pbData",
          "type": "uint256[]"
        }
      ],
      "stateMutability": "view",
      "type": "function"
    },
    {
      "inputs": [
        {
          "internalType": "uint256",
          "name": "tokenId",
          "type": "uint256"
        }
      ],
      "name": "getPlayerBoardData",
      "outputs": [
        {
          "components": [
            {
              "internalType": "uint256",
              "name": "tokenId",
              "type": "uint256"
            },
            {
              "internalType": "uint256",
              "name": "gameUUID",
              "type": "uint256"
            },
            {
              "internalType": "uint8[5]",
              "name": "bColumn",
              "type": "uint8[5]"
            },
            {
              "internalType": "uint8[5]",
              "name": "iColumn",
              "type": "uint8[5]"
            },
            {
              "internalType": "uint8[5]",
              "name": "nColumn",
              "type": "uint8[5]"
            },
            {
              "internalType": "uint8[5]",
              "name": "gColumn",
              "type": "uint8[5]"
            },
            {
              "internalType": "uint8[5]",
              "name": "oColumn",
              "type": "uint8[5]"
            }
          ],
          "internalType": "struct BingoBoardData.PlayerBoardData",
          "name": "pbData",
          "type": "tuple"
        }
      ],
      "stateMutability": "view",
      "type": "function"
    },
    {
      "inputs": [],
      "name": "getPlayerBoardsData",
      "outputs": [
        {
          "components": [
            {
              "internalType": "uint256",
              "name": "tokenId",
              "type": "uint256"
            },
            {
              "internalType": "uint256",
              "name": "gameUUID",
              "type": "uint256"
            },
            {
              "internalType": "uint8[5]",
              "name": "bColumn",
              "type": "uint8[5]"
            },
            {
              "internalType": "uint8[5]",
              "name": "iColumn",
              "type": "uint8[5]"
            },
            {
              "internalType": "uint8[5]",
              "name": "nColumn",
              "type": "uint8[5]"
            },
            {
              "internalType": "uint8[5]",
              "name": "gColumn",
              "type": "uint8[5]"
            },
            {
              "internalType": "uint8[5]",
              "name": "oColumn",
              "type": "uint8[5]"
            }
          ],
          "internalType": "struct BingoBoardData.PlayerBoardData[]",
          "name": "pbData",
          "type": "tuple[]"
        }
      ],
      "stateMutability": "view",
      "type": "function"
    },
    {
      "inputs": [
        {
          "internalType": "address",
          "name": "owner",
          "type": "address"
        },
        {
          "internalType": "address",
          "name": "operator",
          "type": "address"
        }
      ],
      "name": "isApprovedForAll",
      "outputs": [
        {
          "internalType": "bool",
          "name": "",
          "type": "bool"
        }
      ],
      "stateMutability": "view",
      "type": "function"
    },
    {
      "inputs": [
        {
          "internalType": "uint256",
          "name": "tokenId",
          "type": "uint256"
        },
        {
          "internalType": "uint256",
          "name": "gameUUID",
          "type": "uint256"
        }
      ],
      "name": "isNFTInGame",
      "outputs": [
        {
          "internalType": "bool",
          "name": "",
          "type": "bool"
        }
      ],
      "stateMutability": "view",
      "type": "function"
    },
    {
      "inputs": [],
      "name": "name",
      "outputs": [
        {
          "internalType": "string",
          "name": "",
          "type": "string"
        }
      ],
      "stateMutability": "view",
      "type": "function"
    },
    {
      "inputs": [],
      "name": "owner",
      "outputs": [
        {
          "internalType": "address",
          "name": "",
          "type": "address"
        }
      ],
      "stateMutability": "view",
      "type": "function"
    },
    {
      "inputs": [
        {
          "internalType": "uint256",
          "name": "tokenId",
          "type": "uint256"
        }
      ],
      "name": "ownerOf",
      "outputs": [
        {
          "internalType": "address",
          "name": "",
          "type": "address"
        }
      ],
      "stateMutability": "view",
      "type": "function"
    },
    {
      "inputs": [],
      "name": "renounceOwnership",
      "outputs": [],
      "stateMutability": "nonpayable",
      "type": "function"
    },
    {
      "inputs": [
        {
          "internalType": "address",
          "name": "to",
          "type": "address"
        },
        {
          "internalType": "uint256",
          "name": "gameUUID",
          "type": "uint256"
        }
      ],
      "name": "safeMint",
      "outputs": [
        {
          "internalType": "uint256",
          "name": "",
          "type": "uint256"
        }
      ],
      "stateMutability": "nonpayable",
      "type": "function"
    },
    {
      "inputs": [
        {
          "internalType": "address",
          "name": "from",
          "type": "address"
        },
        {
          "internalType": "address",
          "name": "to",
          "type": "address"
        },
        {
          "internalType": "uint256",
          "name": "tokenId",
          "type": "uint256"
        }
      ],
      "name": "safeTransferFrom",
      "outputs": [],
      "stateMutability": "nonpayable",
      "type": "function"
    },
    {
      "inputs": [
        {
          "internalType": "address",
          "name": "from",
          "type": "address"
        },
        {
          "internalType": "address",
          "name": "to",
          "type": "address"
        },
        {
          "internalType": "uint256",
          "name": "tokenId",
          "type": "uint256"
        },
        {
          "internalType": "bytes",
          "name": "_data",
          "type": "bytes"
        }
      ],
      "name": "safeTransferFrom",
      "outputs": [],
      "stateMutability": "nonpayable",
      "type": "function"
    },
    {
      "inputs": [
        {
          "internalType": "address",
          "name": "operator",
          "type": "address"
        },
        {
          "internalType": "bool",
          "name": "approved",
          "type": "bool"
        }
      ],
      "name": "setApprovalForAll",
      "outputs": [],
      "stateMutability": "nonpayable",
      "type": "function"
    },
    {
      "inputs": [
        {
          "internalType": "bytes4",
          "name": "interfaceId",
          "type": "bytes4"
        }
      ],
      "name": "supportsInterface",
      "outputs": [
        {
          "internalType": "bool",
          "name": "",
          "type": "bool"
        }
      ],
      "stateMutability": "view",
      "type": "function"
    },
    {
      "inputs": [],
      "name": "symbol",
      "outputs": [
        {
          "internalType": "string",
          "name": "",
          "type": "string"
        }
      ],
      "stateMutability": "view",
      "type": "function"
    },
    {
      "inputs": [
        {
          "internalType": "uint256",
          "name": "index",
          "type": "uint256"
        }
      ],
      "name": "tokenByIndex",
      "outputs": [
        {
          "internalType": "uint256",
          "name": "",
          "type": "uint256"
        }
      ],
      "stateMutability": "view",
      "type": "function"
    },
    {
      "inputs": [
        {
          "internalType": "address",
          "name": "owner",
          "type": "address"
        },
        {
          "internalType": "uint256",
          "name": "index",
          "type": "uint256"
        }
      ],
      "name": "tokenOfOwnerByIndex",
      "outputs": [
        {
          "internalType": "uint256",
          "name": "",
          "type": "uint256"
        }
      ],
      "stateMutability": "view",
      "type": "function"
    },
    {
      "inputs": [
        {
          "internalType": "uint256",
          "name": "tokenId",
          "type": "uint256"
        }
      ],
      "name": "tokenURI",
      "outputs": [
        {
          "internalType": "string",
          "name": "",
          "type": "string"
        }
      ],
      "stateMutability": "view",
      "type": "function"
    },
    {
      "inputs": [],
      "name": "totalSupply",
      "outputs": [
        {
          "internalType": "uint256",
          "name": "",
          "type": "uint256"
        }
      ],
      "stateMutability": "view",
      "type": "function"
    },
    {
      "inputs": [
        {
          "internalType": "address",
          "name": "from",
          "type": "address"
        },
        {
          "internalType": "address",
          "name": "to",
          "type": "address"
        },
        {
          "internalType": "uint256",
          "name": "tokenId",
          "type": "uint256"
        }
      ],
      "name": "transferFrom",
      "outputs": [],
      "stateMutability": "nonpayable",
      "type": "function"
    },
    {
      "inputs": [
        {
          "internalType": "address",
          "name": "newOwner",
          "type": "address"
        }
      ],
      "name": "transferOwnership",
      "outputs": [],
      "stateMutability": "nonpayable",
      "type": "function"
    }
  ],
  "bytecode": "0x60806040523480156200001157600080fd5b506040518060400160405280600d81526020017f42696e676f426f6172644e4654000000000000000000000000000000000000008152506040518060400160405280600a81526020017f42494e474f424f4152440000000000000000000000000000000000000000000081525042600080018190555081600190805190602001906200009f929190620001af565b508060029080519060200190620000b8929190620001af565b505050620000db620000cf620000e160201b60201c565b620000e960201b60201c565b620002c4565b600033905090565b6000600b60009054906101000a900473ffffffffffffffffffffffffffffffffffffffff16905081600b60006101000a81548173ffffffffffffffffffffffffffffffffffffffff021916908373ffffffffffffffffffffffffffffffffffffffff1602179055508173ffffffffffffffffffffffffffffffffffffffff168173ffffffffffffffffffffffffffffffffffffffff167f8be0079c531659141344cd1fd0a4f28419497f9722a3daafe3b4186f6b6457e060405160405180910390a35050565b828054620001bd906200028e565b90600052602060002090601f016020900481019282620001e157600085556200022d565b82601f10620001fc57805160ff19168380011785556200022d565b828001600101855582156200022d579182015b828111156200022c5782518255916020019190600101906200020f565b5b5090506200023c919062000240565b5090565b5b808211156200025b57600081600090555060010162000241565b5090565b7f4e487b7100000000000000000000000000000000000000000000000000000000600052602260045260246000fd5b60006002820490506001821680620002a757607f821691505b60208210811415620002be57620002bd6200025f565b5b50919050565b6148b080620002d46000396000f3fe608060405234801561001057600080fd5b50600436106101735760003560e01c8063715018a6116100de578063a144819411610097578063c87b56dd11610071578063c87b56dd14610484578063cf8b88e3146104b4578063e985e9c5146104d2578063f2fde38b1461050257610173565b8063a14481941461041c578063a22cb4651461044c578063b88d4fde1461046857610173565b8063715018a61461035857806371a2ef2414610362578063807ea6a1146103805780638da5cb5b146103b057806395d89b41146103ce5780639c15a85f146103ec57610173565b80632f745c59116101305780632f745c591461024c578063409bec371461027c57806342842e0e146102ac5780634f6ccce7146102c85780636352211e146102f857806370a082311461032857610173565b806301ffc9a71461017857806306fdde03146101a8578063081812fc146101c6578063095ea7b3146101f657806318160ddd1461021257806323b872dd14610230575b600080fd5b610192600480360381019061018d91906130f9565b61051e565b60405161019f9190613141565b60405180910390f35b6101b0610530565b6040516101bd91906131f5565b60405180910390f35b6101e060048036038101906101db919061324d565b6105c2565b6040516101ed91906132bb565b60405180910390f35b610210600480360381019061020b9190613302565b610647565b005b61021a61075f565b6040516102279190613351565b60405180910390f35b61024a6004803603810190610245919061336c565b61076c565b005b61026660048036038101906102619190613302565b6107cc565b6040516102739190613351565b60405180910390f35b610296600480360381019061029191906133bf565b610871565b6040516102a39190613141565b60405180910390f35b6102c660048036038101906102c1919061336c565b610897565b005b6102e260048036038101906102dd919061324d565b6108b7565b6040516102ef9190613351565b60405180910390f35b610312600480360381019061030d919061324d565b610928565b60405161031f91906132bb565b60405180910390f35b610342600480360381019061033d91906133ff565b6109da565b60405161034f9190613351565b60405180910390f35b610360610a92565b005b61036a610b1a565b60405161037791906134ea565b60405180910390f35b61039a6004803603810190610395919061324d565b610bc0565b6040516103a791906131f5565b60405180910390f35b6103b8610cf7565b6040516103c591906132bb565b60405180910390f35b6103d6610d21565b6040516103e391906131f5565b60405180910390f35b6104066004803603810190610401919061324d565b610db3565b6040516104139190613656565b60405180910390f35b61043660048036038101906104319190613302565b61100e565b6040516104439190613351565b60405180910390f35b6104666004803603810190610461919061369e565b611158565b005b610482600480360381019061047d9190613813565b61116e565b005b61049e6004803603810190610499919061324d565b6111d0565b6040516104ab91906131f5565b60405180910390f35b6104bc611277565b6040516104c991906139d8565b60405180910390f35b6104ec60048036038101906104e791906139fa565b611572565b6040516104f99190613141565b60405180910390f35b61051c600480360381019061051791906133ff565b611606565b005b6000610529826116fe565b9050919050565b60606001805461053f90613a69565b80601f016020809104026020016040519081016040528092919081815260200182805461056b90613a69565b80156105b85780601f1061058d576101008083540402835291602001916105b8565b820191906000526020600020905b81548152906001019060200180831161059b57829003601f168201915b5050505050905090565b60006105cd82611778565b61060c576040517f08c379a000000000000000000000000000000000000000000000000000000000815260040161060390613b0d565b60405180910390fd5b6005600083815260200190815260200160002060009054906101000a900473ffffffffffffffffffffffffffffffffffffffff169050919050565b600061065282610928565b90508073ffffffffffffffffffffffffffffffffffffffff168373ffffffffffffffffffffffffffffffffffffffff1614156106c3576040517f08c379a00000000000000000000000000000000000000000000000000000000081526004016106ba90613b9f565b60405180910390fd5b8073ffffffffffffffffffffffffffffffffffffffff166106e26117e4565b73ffffffffffffffffffffffffffffffffffffffff16148061071157506107108161070b6117e4565b611572565b5b610750576040517f08c379a000000000000000000000000000000000000000000000000000000000815260040161074790613c31565b60405180910390fd5b61075a83836117ec565b505050565b6000600980549050905090565b61077d6107776117e4565b826118a5565b6107bc576040517f08c379a00000000000000000000000000000000000000000000000000000000081526004016107b390613cc3565b60405180910390fd5b6107c7838383611983565b505050565b60006107d7836109da565b8210610818576040517f08c379a000000000000000000000000000000000000000000000000000000000815260040161080f90613d55565b60405180910390fd5b600760008473ffffffffffffffffffffffffffffffffffffffff1673ffffffffffffffffffffffffffffffffffffffff168152602001908152602001600020600083815260200190815260200160002054905092915050565b600081600d60008581526020019081526020016000206002016001015414905092915050565b6108b28383836040518060200160405280600081525061116e565b505050565b60006108c161075f565b8210610902576040517f08c379a00000000000000000000000000000000000000000000000000000000081526004016108f990613de7565b60405180910390fd5b6009828154811061091657610915613e07565b5b90600052602060002001549050919050565b6000806003600084815260200190815260200160002060009054906101000a900473ffffffffffffffffffffffffffffffffffffffff169050600073ffffffffffffffffffffffffffffffffffffffff168173ffffffffffffffffffffffffffffffffffffffff1614156109d1576040517f08c379a00000000000000000000000000000000000000000000000000000000081526004016109c890613ea8565b60405180910390fd5b80915050919050565b60008073ffffffffffffffffffffffffffffffffffffffff168273ffffffffffffffffffffffffffffffffffffffff161415610a4b576040517f08c379a0000000000000000000000000000000000000000000000000000000008152600401610a4290613f3a565b60405180910390fd5b600460008373ffffffffffffffffffffffffffffffffffffffff1673ffffffffffffffffffffffffffffffffffffffff168152602001908152602001600020549050919050565b610a9a6117e4565b73ffffffffffffffffffffffffffffffffffffffff16610ab8610cf7565b73ffffffffffffffffffffffffffffffffffffffff1614610b0e576040517f08c379a0000000000000000000000000000000000000000000000000000000008152600401610b0590613fa6565b60405180910390fd5b610b186000611bea565b565b60606000610b27336109da565b90508067ffffffffffffffff811115610b4357610b426136e8565b5b604051908082528060200260200182016040528015610b715781602001602082028036833780820191505090505b50915060005b81811015610bbb57610b8933826107cc565b838281518110610b9c57610b9b613e07565b5b6020026020010181815250508080610bb390613ff5565b915050610b77565b505090565b6060610c006040518060400160405280601281526020017f676574426f6172644173537472696e6728290000000000000000000000000000815250611cb0565b610c0982611778565b610c48576040517f08c379a0000000000000000000000000000000000000000000000000000000008152600401610c3f906140b0565b60405180910390fd5b600d60008381526020019081526020016000206009018054610c6990613a69565b80601f0160208091040260200160405190810160405280929190818152602001828054610c9590613a69565b8015610ce25780601f10610cb757610100808354040283529160200191610ce2565b820191906000526020600020905b815481529060010190602001808311610cc557829003601f168201915b50505050509050610cf281611cb0565b919050565b6000600b60009054906101000a900473ffffffffffffffffffffffffffffffffffffffff16905090565b606060028054610d3090613a69565b80601f0160208091040260200160405190810160405280929190818152602001828054610d5c90613a69565b8015610da95780601f10610d7e57610100808354040283529160200191610da9565b820191906000526020600020905b815481529060010190602001808311610d8c57829003601f168201915b5050505050905090565b610dbb612f6d565b600d60008381526020019081526020016000206002016040518060e0016040529081600082015481526020016001820154815260200160028201600580602002604051908101604052809291908260058015610e52576020028201916000905b82829054906101000a900460ff1660ff1681526020019060010190602082600001049283019260010382029150808411610e1b5790505b5050505050815260200160038201600580602002604051908101604052809291908260058015610ebd576020028201916000905b82829054906101000a900460ff1660ff1681526020019060010190602082600001049283019260010382029150808411610e865790505b5050505050815260200160048201600580602002604051908101604052809291908260058015610f28576020028201916000905b82829054906101000a900460ff1660ff1681526020019060010190602082600001049283019260010382029150808411610ef15790505b5050505050815260200160058201600580602002604051908101604052809291908260058015610f93576020028201916000905b82829054906101000a900460ff1660ff1681526020019060010190602082600001049283019260010382029150808411610f5c5790505b5050505050815260200160068201600580602002604051908101604052809291908260058015610ffe576020028201916000905b82829054906101000a900460ff1660ff1681526020019060010190602082600001049283019260010382029150808411610fc75790505b5050505050815250509050919050565b60006110186117e4565b73ffffffffffffffffffffffffffffffffffffffff16611036610cf7565b73ffffffffffffffffffffffffffffffffffffffff161461108c576040517f08c379a000000000000000000000000000000000000000000000000000000000815260040161108390613fa6565b60405180910390fd5b6110ca6040518060400160405280600881526020017f736166654d696e74000000000000000000000000000000000000000000000000815250611cb0565b60006110d6600c611d49565b90506110e28482611d57565b6110ec600c611d75565b61110981600d600084815260200190815260200160002085611d8b565b808473ffffffffffffffffffffffffffffffffffffffff16847f9bc37ac7db82e495abc146f8ef964d6a05aaf8781ab5d772c30164944b568d6060405160405180910390a48091505092915050565b61116a6111636117e4565b8383611e7f565b5050565b61117f6111796117e4565b836118a5565b6111be576040517f08c379a00000000000000000000000000000000000000000000000000000000081526004016111b590613cc3565b60405180910390fd5b6111ca84848484611fec565b50505050565b60606111db82611778565b61121a576040517f08c379a000000000000000000000000000000000000000000000000000000000815260040161121190614142565b60405180910390fd5b6000611224612048565b90506000815111611244576040518060200160405280600081525061126f565b8061124e8461205f565b60405160200161125f92919061419e565b6040516020818303038152906040525b915050919050565b60606000611284336109da565b90508067ffffffffffffffff8111156112a05761129f6136e8565b5b6040519080825280602002602001820160405280156112d957816020015b6112c6612f6d565b8152602001906001900390816112be5790505b50915060005b8181101561156d57600d60006112f533846107cc565b81526020019081526020016000206002016040518060e0016040529081600082015481526020016001820154815260200160028201600580602002604051908101604052809291908260058015611387576020028201916000905b82829054906101000a900460ff1660ff16815260200190600101906020826000010492830192600103820291508084116113505790505b50505050508152602001600382016005806020026040519081016040528092919082600580156113f2576020028201916000905b82829054906101000a900460ff1660ff16815260200190600101906020826000010492830192600103820291508084116113bb5790505b505050505081526020016004820160058060200260405190810160405280929190826005801561145d576020028201916000905b82829054906101000a900460ff1660ff16815260200190600101906020826000010492830192600103820291508084116114265790505b50505050508152602001600582016005806020026040519081016040528092919082600580156114c8576020028201916000905b82829054906101000a900460ff1660ff16815260200190600101906020826000010492830192600103820291508084116114915790505b5050505050815260200160068201600580602002604051908101604052809291908260058015611533576020028201916000905b82829054906101000a900460ff1660ff16815260200190600101906020826000010492830192600103820291508084116114fc5790505b50505050508152505083828151811061154f5761154e613e07565b5b6020026020010181905250808061156590613ff5565b9150506112df565b505090565b6000600660008473ffffffffffffffffffffffffffffffffffffffff1673ffffffffffffffffffffffffffffffffffffffff16815260200190815260200160002060008373ffffffffffffffffffffffffffffffffffffffff1673ffffffffffffffffffffffffffffffffffffffff16815260200190815260200160002060009054906101000a900460ff16905092915050565b61160e6117e4565b73ffffffffffffffffffffffffffffffffffffffff1661162c610cf7565b73ffffffffffffffffffffffffffffffffffffffff1614611682576040517f08c379a000000000000000000000000000000000000000000000000000000000815260040161167990613fa6565b60405180910390fd5b600073ffffffffffffffffffffffffffffffffffffffff168173ffffffffffffffffffffffffffffffffffffffff1614156116f2576040517f08c379a00000000000000000000000000000000000000000000000000000000081526004016116e990614234565b60405180910390fd5b6116fb81611bea565b50565b60007f780e9d63000000000000000000000000000000000000000000000000000000007bffffffffffffffffffffffffffffffffffffffffffffffffffffffff1916827bffffffffffffffffffffffffffffffffffffffffffffffffffffffff191614806117715750611770826121c0565b5b9050919050565b60008073ffffffffffffffffffffffffffffffffffffffff166003600084815260200190815260200160002060009054906101000a900473ffffffffffffffffffffffffffffffffffffffff1673ffffffffffffffffffffffffffffffffffffffff1614159050919050565b600033905090565b816005600083815260200190815260200160002060006101000a81548173ffffffffffffffffffffffffffffffffffffffff021916908373ffffffffffffffffffffffffffffffffffffffff160217905550808273ffffffffffffffffffffffffffffffffffffffff1661185f83610928565b73ffffffffffffffffffffffffffffffffffffffff167f8c5be1e5ebec7d5bd14f71427d1e84f3dd0314c0f7b2291e5b200ac8c7c3b92560405160405180910390a45050565b60006118b082611778565b6118ef576040517f08c379a00000000000000000000000000000000000000000000000000000000081526004016118e6906142c6565b60405180910390fd5b60006118fa83610928565b90508073ffffffffffffffffffffffffffffffffffffffff168473ffffffffffffffffffffffffffffffffffffffff16148061193c575061193b8185611572565b5b8061197a57508373ffffffffffffffffffffffffffffffffffffffff16611962846105c2565b73ffffffffffffffffffffffffffffffffffffffff16145b91505092915050565b8273ffffffffffffffffffffffffffffffffffffffff166119a382610928565b73ffffffffffffffffffffffffffffffffffffffff16146119f9576040517f08c379a00000000000000000000000000000000000000000000000000000000081526004016119f090614358565b60405180910390fd5b600073ffffffffffffffffffffffffffffffffffffffff168273ffffffffffffffffffffffffffffffffffffffff161415611a69576040517f08c379a0000000000000000000000000000000000000000000000000000000008152600401611a60906143ea565b60405180910390fd5b611a748383836122a2565b611a7f6000826117ec565b6001600460008573ffffffffffffffffffffffffffffffffffffffff1673ffffffffffffffffffffffffffffffffffffffff1681526020019081526020016000206000828254611acf919061440a565b925050819055506001600460008473ffffffffffffffffffffffffffffffffffffffff1673ffffffffffffffffffffffffffffffffffffffff1681526020019081526020016000206000828254611b26919061443e565b92505081905550816003600083815260200190815260200160002060006101000a81548173ffffffffffffffffffffffffffffffffffffffff021916908373ffffffffffffffffffffffffffffffffffffffff160217905550808273ffffffffffffffffffffffffffffffffffffffff168473ffffffffffffffffffffffffffffffffffffffff167fddf252ad1be2c89b69c2b068fc378daa952ba7f163c4a11628f55a4df523b3ef60405160405180910390a4611be58383836122b2565b505050565b6000600b60009054906101000a900473ffffffffffffffffffffffffffffffffffffffff16905081600b60006101000a81548173ffffffffffffffffffffffffffffffffffffffff021916908373ffffffffffffffffffffffffffffffffffffffff1602179055508173ffffffffffffffffffffffffffffffffffffffff168173ffffffffffffffffffffffffffffffffffffffff167f8be0079c531659141344cd1fd0a4f28419497f9722a3daafe3b4186f6b6457e060405160405180910390a35050565b611d4681604051602401611cc491906131f5565b6040516020818303038152906040527f41304fac000000000000000000000000000000000000000000000000000000007bffffffffffffffffffffffffffffffffffffffffffffffffffffffff19166020820180517bffffffffffffffffffffffffffffffffffffffffffffffffffffffff83818316178352505050506122b7565b50565b600081600001549050919050565b611d718282604051806020016040528060008152506122e0565b5050565b6001816000016000828254019250508190555050565b808260020160010181905550828260020160000181905550611db58283600201600201600061233b565b611dc78283600201600301600f61233b565b611dd98283600201600401601e61233b565b611deb8283600201600501602d61233b565b611dfd8283600201600601603c61233b565b600082600201600401600260058110611e1957611e18613e07565b5b602091828204019190066101000a81548160ff021916908360ff16021790555060018260000160000160006101000a81548160ff021916908315150217905550611e6282612446565b826009019080519060200190611e79929190612fc8565b50505050565b8173ffffffffffffffffffffffffffffffffffffffff168373ffffffffffffffffffffffffffffffffffffffff161415611eee576040517f08c379a0000000000000000000000000000000000000000000000000000000008152600401611ee5906144e0565b60405180910390fd5b80600660008573ffffffffffffffffffffffffffffffffffffffff1673ffffffffffffffffffffffffffffffffffffffff16815260200190815260200160002060008473ffffffffffffffffffffffffffffffffffffffff1673ffffffffffffffffffffffffffffffffffffffff16815260200190815260200160002060006101000a81548160ff0219169083151502179055508173ffffffffffffffffffffffffffffffffffffffff168373ffffffffffffffffffffffffffffffffffffffff167f17307eab39ab6107e8899845ad3d59bd9653f200f220920489ca2b5937696c3183604051611fdf9190613141565b60405180910390a3505050565b611ff7848484611983565b612003848484846124a7565b612042576040517f08c379a000000000000000000000000000000000000000000000000000000000815260040161203990614572565b60405180910390fd5b50505050565b606060405180602001604052806000815250905090565b606060008214156120a7576040518060400160405280600181526020017f300000000000000000000000000000000000000000000000000000000000000081525090506121bb565b600082905060005b600082146120d95780806120c290613ff5565b915050600a826120d291906145c1565b91506120af565b60008167ffffffffffffffff8111156120f5576120f46136e8565b5b6040519080825280601f01601f1916602001820160405280156121275781602001600182028036833780820191505090505b5090505b600085146121b457600182612140919061440a565b9150600a8561214f91906145f2565b603061215b919061443e565b60f81b81838151811061217157612170613e07565b5b60200101907effffffffffffffffffffffffffffffffffffffffffffffffffffffffffffff1916908160001a905350600a856121ad91906145c1565b945061212b565b8093505050505b919050565b60007f80ac58cd000000000000000000000000000000000000000000000000000000007bffffffffffffffffffffffffffffffffffffffffffffffffffffffff1916827bffffffffffffffffffffffffffffffffffffffffffffffffffffffff1916148061228b57507f5b5e139f000000000000000000000000000000000000000000000000000000007bffffffffffffffffffffffffffffffffffffffffffffffffffffffff1916827bffffffffffffffffffffffffffffffffffffffffffffffffffffffff1916145b8061229b575061229a8261263e565b5b9050919050565b6122ad8383836126a8565b505050565b505050565b60008151905060006a636f6e736f6c652e6c6f679050602083016000808483855afa5050505050565b6122ea83836127bc565b6122f760008484846124a7565b612336576040517f08c379a000000000000000000000000000000000000000000000000000000000815260040161232d90614572565b60405180910390fd5b505050565b600080600090505b600581101561243f578260ff166001600f61235e6000612996565b61236891906145f2565b612372919061443e565b61237c919061443e565b915060008260ff16141580156123bb57508460000160010160008360ff1660ff16815260200190815260200160002060009054906101000a900460ff16155b1561243a57818482600581106123d4576123d3613e07565b5b602091828204019190066101000a81548160ff021916908360ff16021790555060018560000160010160008460ff1660ff16815260200190815260200160002060006101000a81548160ff021916908315150217905550808061243690613ff5565b9150505b612343565b5050505050565b606061245881836002016002016129e6565b905061246a81836002016003016129e6565b905061247c81836002016004016129e6565b905061248e81836002016005016129e6565b90506124a081836002016006016129e6565b9050919050565b60006124c88473ffffffffffffffffffffffffffffffffffffffff16612be4565b15612631578373ffffffffffffffffffffffffffffffffffffffff1663150b7a026124f16117e4565b8786866040518563ffffffff1660e01b81526004016125139493929190614678565b602060405180830381600087803b15801561252d57600080fd5b505af192505050801561255e57506040513d601f19601f8201168201806040525081019061255b91906146d9565b60015b6125e1573d806000811461258e576040519150601f19603f3d011682016040523d82523d6000602084013e612593565b606091505b506000815114156125d9576040517f08c379a00000000000000000000000000000000000000000000000000000000081526004016125d090614572565b60405180910390fd5b805181602001fd5b63150b7a0260e01b7bffffffffffffffffffffffffffffffffffffffffffffffffffffffff1916817bffffffffffffffffffffffffffffffffffffffffffffffffffffffff191614915050612636565b600190505b949350505050565b60007f01ffc9a7000000000000000000000000000000000000000000000000000000007bffffffffffffffffffffffffffffffffffffffffffffffffffffffff1916827bffffffffffffffffffffffffffffffffffffffffffffffffffffffff1916149050919050565b6126b3838383612c07565b600073ffffffffffffffffffffffffffffffffffffffff168373ffffffffffffffffffffffffffffffffffffffff1614156126f6576126f181612c0c565b612735565b8173ffffffffffffffffffffffffffffffffffffffff168373ffffffffffffffffffffffffffffffffffffffff1614612734576127338382612c55565b5b5b600073ffffffffffffffffffffffffffffffffffffffff168273ffffffffffffffffffffffffffffffffffffffff1614156127785761277381612dc2565b6127b7565b8273ffffffffffffffffffffffffffffffffffffffff168273ffffffffffffffffffffffffffffffffffffffff16146127b6576127b58282612e93565b5b5b505050565b600073ffffffffffffffffffffffffffffffffffffffff168273ffffffffffffffffffffffffffffffffffffffff16141561282c576040517f08c379a000000000000000000000000000000000000000000000000000000000815260040161282390614752565b60405180910390fd5b61283581611778565b15612875576040517f08c379a000000000000000000000000000000000000000000000000000000000815260040161286c906147be565b60405180910390fd5b612881600083836122a2565b6001600460008473ffffffffffffffffffffffffffffffffffffffff1673ffffffffffffffffffffffffffffffffffffffff16815260200190815260200160002060008282546128d1919061443e565b92505081905550816003600083815260200190815260200160002060006101000a81548173ffffffffffffffffffffffffffffffffffffffff021916908373ffffffffffffffffffffffffffffffffffffffff160217905550808273ffffffffffffffffffffffffffffffffffffffff16600073ffffffffffffffffffffffffffffffffffffffff167fddf252ad1be2c89b69c2b068fc378daa952ba7f163c4a11628f55a4df523b3ef60405160405180910390a4612992600083836122b2565b5050565b60008082600001546040516020016129ae91906147ff565b6040516020818303038152906040528051906020012060001c9050826000016000815480929190600101919050555080915050919050565b60608060005b6005811015612b9b576000848260058110612a0a57612a09613e07565b5b602091828204019190069054906101000a900460ff1660ff1614612b0d576009848260058110612a3d57612a3c613e07565b5b602091828204019190069054906101000a900460ff1660ff161115612a9557612a90848260058110612a7257612a71613e07565b5b602091828204019190069054906101000a900460ff1660ff1661205f565b612b08565b612b076040518060400160405280600181526020017f2000000000000000000000000000000000000000000000000000000000000000815250612b02868460058110612ae457612ae3613e07565b5b602091828204019190069054906101000a900460ff1660ff1661205f565b612f12565b5b612b44565b6040518060400160405280600281526020017f2d2d0000000000000000000000000000000000000000000000000000000000008152505b9150612b8685836040518060400160405280600281526020017f2020000000000000000000000000000000000000000000000000000000000000815250612f3e565b94508080612b9390613ff5565b9150506129ec565b50612bdb846040518060400160405280600181526020017f0a00000000000000000000000000000000000000000000000000000000000000815250612f12565b91505092915050565b6000808273ffffffffffffffffffffffffffffffffffffffff163b119050919050565b505050565b600980549050600a600083815260200190815260200160002081905550600981908060018154018082558091505060019003906000526020600020016000909190919091505550565b60006001612c62846109da565b612c6c919061440a565b9050600060086000848152602001908152602001600020549050818114612d51576000600760008673ffffffffffffffffffffffffffffffffffffffff1673ffffffffffffffffffffffffffffffffffffffff168152602001908152602001600020600084815260200190815260200160002054905080600760008773ffffffffffffffffffffffffffffffffffffffff1673ffffffffffffffffffffffffffffffffffffffff168152602001908152602001600020600084815260200190815260200160002081905550816008600083815260200190815260200160002081905550505b6008600084815260200190815260200160002060009055600760008573ffffffffffffffffffffffffffffffffffffffff1673ffffffffffffffffffffffffffffffffffffffff16815260200190815260200160002060008381526020019081526020016000206000905550505050565b60006001600980549050612dd6919061440a565b90506000600a6000848152602001908152602001600020549050600060098381548110612e0657612e05613e07565b5b906000526020600020015490508060098381548110612e2857612e27613e07565b5b906000526020600020018190555081600a600083815260200190815260200160002081905550600a6000858152602001908152602001600020600090556009805480612e7757612e7661481a565b5b6001900381819060005260206000200160009055905550505050565b6000612e9e836109da565b905081600760008573ffffffffffffffffffffffffffffffffffffffff1673ffffffffffffffffffffffffffffffffffffffff168152602001908152602001600020600083815260200190815260200160002081905550806008600084815260200190815260200160002081905550505050565b60608282604051602001612f2792919061419e565b604051602081830303815290604052905092915050565b6060838383604051602001612f5593929190614849565b60405160208183030381529060405290509392505050565b6040518060e001604052806000815260200160008152602001612f8e61304e565b8152602001612f9b61304e565b8152602001612fa861304e565b8152602001612fb561304e565b8152602001612fc261304e565b81525090565b828054612fd490613a69565b90600052602060002090601f016020900481019282612ff6576000855561303d565b82601f1061300f57805160ff191683800117855561303d565b8280016001018555821561303d579182015b8281111561303c578251825591602001919060010190613021565b5b50905061304a9190613070565b5090565b6040518060a00160405280600590602082028036833780820191505090505090565b5b80821115613089576000816000905550600101613071565b5090565b6000604051905090565b600080fd5b600080fd5b60007fffffffff0000000000000000000000000000000000000000000000000000000082169050919050565b6130d6816130a1565b81146130e157600080fd5b50565b6000813590506130f3816130cd565b92915050565b60006020828403121561310f5761310e613097565b5b600061311d848285016130e4565b91505092915050565b60008115159050919050565b61313b81613126565b82525050565b60006020820190506131566000830184613132565b92915050565b600081519050919050565b600082825260208201905092915050565b60005b8381101561319657808201518184015260208101905061317b565b838111156131a5576000848401525b50505050565b6000601f19601f8301169050919050565b60006131c78261315c565b6131d18185613167565b93506131e1818560208601613178565b6131ea816131ab565b840191505092915050565b6000602082019050818103600083015261320f81846131bc565b905092915050565b6000819050919050565b61322a81613217565b811461323557600080fd5b50565b60008135905061324781613221565b92915050565b60006020828403121561326357613262613097565b5b600061327184828501613238565b91505092915050565b600073ffffffffffffffffffffffffffffffffffffffff82169050919050565b60006132a58261327a565b9050919050565b6132b58161329a565b82525050565b60006020820190506132d060008301846132ac565b92915050565b6132df8161329a565b81146132ea57600080fd5b50565b6000813590506132fc816132d6565b92915050565b6000806040838503121561331957613318613097565b5b6000613327858286016132ed565b925050602061333885828601613238565b9150509250929050565b61334b81613217565b82525050565b60006020820190506133666000830184613342565b92915050565b60008060006060848603121561338557613384613097565b5b6000613393868287016132ed565b93505060206133a4868287016132ed565b92505060406133b586828701613238565b9150509250925092565b600080604083850312156133d6576133d5613097565b5b60006133e485828601613238565b92505060206133f585828601613238565b9150509250929050565b60006020828403121561341557613414613097565b5b6000613423848285016132ed565b91505092915050565b600081519050919050565b600082825260208201905092915050565b6000819050602082019050919050565b61346181613217565b82525050565b60006134738383613458565b60208301905092915050565b6000602082019050919050565b60006134978261342c565b6134a18185613437565b93506134ac83613448565b8060005b838110156134dd5781516134c48882613467565b97506134cf8361347f565b9250506001810190506134b0565b5085935050505092915050565b60006020820190508181036000830152613504818461348c565b905092915050565b600060059050919050565b600081905092915050565b6000819050919050565b600060ff82169050919050565b6135428161352c565b82525050565b60006135548383613539565b60208301905092915050565b6000602082019050919050565b6135768161350c565b6135808184613517565b925061358b82613522565b8060005b838110156135bc5781516135a38782613548565b96506135ae83613560565b92505060018101905061358f565b505050505050565b610360820160008201516135db6000850182613458565b5060208201516135ee6020850182613458565b506040820151613601604085018261356d565b50606082015161361460e085018261356d565b50608082015161362861018085018261356d565b5060a082015161363c61022085018261356d565b5060c08201516136506102c085018261356d565b50505050565b60006103608201905061366c60008301846135c4565b92915050565b61367b81613126565b811461368657600080fd5b50565b60008135905061369881613672565b92915050565b600080604083850312156136b5576136b4613097565b5b60006136c3858286016132ed565b92505060206136d485828601613689565b9150509250929050565b600080fd5b600080fd5b7f4e487b7100000000000000000000000000000000000000000000000000000000600052604160045260246000fd5b613720826131ab565b810181811067ffffffffffffffff8211171561373f5761373e6136e8565b5b80604052505050565b600061375261308d565b905061375e8282613717565b919050565b600067ffffffffffffffff82111561377e5761377d6136e8565b5b613787826131ab565b9050602081019050919050565b82818337600083830152505050565b60006137b66137b184613763565b613748565b9050828152602081018484840111156137d2576137d16136e3565b5b6137dd848285613794565b509392505050565b600082601f8301126137fa576137f96136de565b5b813561380a8482602086016137a3565b91505092915050565b6000806000806080858703121561382d5761382c613097565b5b600061383b878288016132ed565b945050602061384c878288016132ed565b935050604061385d87828801613238565b925050606085013567ffffffffffffffff81111561387e5761387d61309c565b5b61388a878288016137e5565b91505092959194509250565b600081519050919050565b600082825260208201905092915050565b6000819050602082019050919050565b610360820160008201516138d96000850182613458565b5060208201516138ec6020850182613458565b5060408201516138ff604085018261356d565b50606082015161391260e085018261356d565b50608082015161392661018085018261356d565b5060a082015161393a61022085018261356d565b5060c082015161394e6102c085018261356d565b50505050565b600061396083836138c2565b6103608301905092915050565b6000602082019050919050565b600061398582613896565b61398f81856138a1565b935061399a836138b2565b8060005b838110156139cb5781516139b28882613954565b97506139bd8361396d565b92505060018101905061399e565b5085935050505092915050565b600060208201905081810360008301526139f2818461397a565b905092915050565b60008060408385031215613a1157613a10613097565b5b6000613a1f858286016132ed565b9250506020613a30858286016132ed565b9150509250929050565b7f4e487b7100000000000000000000000000000000000000000000000000000000600052602260045260246000fd5b60006002820490506001821680613a8157607f821691505b60208210811415613a9557613a94613a3a565b5b50919050565b7f4552433732313a20617070726f76656420717565727920666f72206e6f6e657860008201527f697374656e7420746f6b656e0000000000000000000000000000000000000000602082015250565b6000613af7602c83613167565b9150613b0282613a9b565b604082019050919050565b60006020820190508181036000830152613b2681613aea565b9050919050565b7f4552433732313a20617070726f76616c20746f2063757272656e74206f776e6560008201527f7200000000000000000000000000000000000000000000000000000000000000602082015250565b6000613b89602183613167565b9150613b9482613b2d565b604082019050919050565b60006020820190508181036000830152613bb881613b7c565b9050919050565b7f4552433732313a20617070726f76652063616c6c6572206973206e6f74206f7760008201527f6e6572206e6f7220617070726f76656420666f7220616c6c0000000000000000602082015250565b6000613c1b603883613167565b9150613c2682613bbf565b604082019050919050565b60006020820190508181036000830152613c4a81613c0e565b9050919050565b7f4552433732313a207472616e736665722063616c6c6572206973206e6f74206f60008201527f776e6572206e6f7220617070726f766564000000000000000000000000000000602082015250565b6000613cad603183613167565b9150613cb882613c51565b604082019050919050565b60006020820190508181036000830152613cdc81613ca0565b9050919050565b7f455243373231456e756d657261626c653a206f776e657220696e646578206f7560008201527f74206f6620626f756e6473000000000000000000000000000000000000000000602082015250565b6000613d3f602b83613167565b9150613d4a82613ce3565b604082019050919050565b60006020820190508181036000830152613d6e81613d32565b9050919050565b7f455243373231456e756d657261626c653a20676c6f62616c20696e646578206f60008201527f7574206f6620626f756e64730000000000000000000000000000000000000000602082015250565b6000613dd1602c83613167565b9150613ddc82613d75565b604082019050919050565b60006020820190508181036000830152613e0081613dc4565b9050919050565b7f4e487b7100000000000000000000000000000000000000000000000000000000600052603260045260246000fd5b7f4552433732313a206f776e657220717565727920666f72206e6f6e657869737460008201527f656e7420746f6b656e0000000000000000000000000000000000000000000000602082015250565b6000613e92602983613167565b9150613e9d82613e36565b604082019050919050565b60006020820190508181036000830152613ec181613e85565b9050919050565b7f4552433732313a2062616c616e636520717565727920666f7220746865207a6560008201527f726f206164647265737300000000000000000000000000000000000000000000602082015250565b6000613f24602a83613167565b9150613f2f82613ec8565b604082019050919050565b60006020820190508181036000830152613f5381613f17565b9050919050565b7f4f776e61626c653a2063616c6c6572206973206e6f7420746865206f776e6572600082015250565b6000613f90602083613167565b9150613f9b82613f5a565b602082019050919050565b60006020820190508181036000830152613fbf81613f83565b9050919050565b7f4e487b7100000000000000000000000000000000000000000000000000000000600052601160045260246000fd5b600061400082613217565b91507fffffffffffffffffffffffffffffffffffffffffffffffffffffffffffffffff82141561403357614032613fc6565b5b600182019050919050565b7f676574426f6172644173537472696e673a206e6f6e6578697374656e7420746f60008201527f6b656e0000000000000000000000000000000000000000000000000000000000602082015250565b600061409a602383613167565b91506140a58261403e565b604082019050919050565b600060208201905081810360008301526140c98161408d565b9050919050565b7f4552433732314d657461646174613a2055524920717565727920666f72206e6f60008201527f6e6578697374656e7420746f6b656e0000000000000000000000000000000000602082015250565b600061412c602f83613167565b9150614137826140d0565b604082019050919050565b6000602082019050818103600083015261415b8161411f565b9050919050565b600081905092915050565b60006141788261315c565b6141828185614162565b9350614192818560208601613178565b80840191505092915050565b60006141aa828561416d565b91506141b6828461416d565b91508190509392505050565b7f4f776e61626c653a206e6577206f776e657220697320746865207a65726f206160008201527f6464726573730000000000000000000000000000000000000000000000000000602082015250565b600061421e602683613167565b9150614229826141c2565b604082019050919050565b6000602082019050818103600083015261424d81614211565b9050919050565b7f4552433732313a206f70657261746f7220717565727920666f72206e6f6e657860008201527f697374656e7420746f6b656e0000000000000000000000000000000000000000602082015250565b60006142b0602c83613167565b91506142bb82614254565b604082019050919050565b600060208201905081810360008301526142df816142a3565b9050919050565b7f4552433732313a207472616e736665722066726f6d20696e636f72726563742060008201527f6f776e6572000000000000000000000000000000000000000000000000000000602082015250565b6000614342602583613167565b915061434d826142e6565b604082019050919050565b6000602082019050818103600083015261437181614335565b9050919050565b7f4552433732313a207472616e7366657220746f20746865207a65726f2061646460008201527f7265737300000000000000000000000000000000000000000000000000000000602082015250565b60006143d4602483613167565b91506143df82614378565b604082019050919050565b60006020820190508181036000830152614403816143c7565b9050919050565b600061441582613217565b915061442083613217565b92508282101561443357614432613fc6565b5b828203905092915050565b600061444982613217565b915061445483613217565b9250827fffffffffffffffffffffffffffffffffffffffffffffffffffffffffffffffff0382111561448957614488613fc6565b5b828201905092915050565b7f4552433732313a20617070726f766520746f2063616c6c657200000000000000600082015250565b60006144ca601983613167565b91506144d582614494565b602082019050919050565b600060208201905081810360008301526144f9816144bd565b9050919050565b7f4552433732313a207472616e7366657220746f206e6f6e20455243373231526560008201527f63656976657220696d706c656d656e7465720000000000000000000000000000602082015250565b600061455c603283613167565b915061456782614500565b604082019050919050565b6000602082019050818103600083015261458b8161454f565b9050919050565b7f4e487b7100000000000000000000000000000000000000000000000000000000600052601260045260246000fd5b60006145cc82613217565b91506145d783613217565b9250826145e7576145e6614592565b5b828204905092915050565b60006145fd82613217565b915061460883613217565b92508261461857614617614592565b5b828206905092915050565b600081519050919050565b600082825260208201905092915050565b600061464a82614623565b614654818561462e565b9350614664818560208601613178565b61466d816131ab565b840191505092915050565b600060808201905061468d60008301876132ac565b61469a60208301866132ac565b6146a76040830185613342565b81810360608301526146b9818461463f565b905095945050505050565b6000815190506146d3816130cd565b92915050565b6000602082840312156146ef576146ee613097565b5b60006146fd848285016146c4565b91505092915050565b7f4552433732313a206d696e7420746f20746865207a65726f2061646472657373600082015250565b600061473c602083613167565b915061474782614706565b602082019050919050565b6000602082019050818103600083015261476b8161472f565b9050919050565b7f4552433732313a20746f6b656e20616c7265616479206d696e74656400000000600082015250565b60006147a8601c83613167565b91506147b382614772565b602082019050919050565b600060208201905081810360008301526147d78161479b565b9050919050565b6000819050919050565b6147f96147f482613217565b6147de565b82525050565b600061480b82846147e8565b60208201915081905092915050565b7f4e487b7100000000000000000000000000000000000000000000000000000000600052603160045260246000fd5b6000614855828661416d565b9150614861828561416d565b915061486d828461416d565b915081905094935050505056fea264697066735822122044a0cc6d77686fe67a6f75f2d42699fc684719096e5f69fdfecc0f8501bc382564736f6c63430008090033",
  "linkReferences": {},
  "deployedLinkReferences": {}
}