{
  "_format": "hh-sol-artifact-1",
  "contractName": "BingoGame",
  "sourceName": "contracts/BingoGame.sol",
  "abi": [
    {
      "inputs": [
        {
          "internalType": "contract BingoBoardNFT",
          "name": "bingoBoardNFT_",
          "type": "address"
        },
        {
          "internalType": "contract IBingoSBT",
          "name": "bingoSBT_",
          "type": "address"
        }
      ],
      "stateMutability": "nonpayable",
      "type": "constructor"
    },
    {
      "anonymous": false,
      "inputs": [
        {
          "indexed": false,
          "internalType": "uint256",
          "name": "gameUUID",
          "type": "uint256"
        },
        {
          "indexed": true,
          "internalType": "address",
          "name": "winner",
          "type": "address"
        }
      ],
      "name": "BingoClaimed",
      "type": "event"
    },
    {
      "anonymous": false,
      "inputs": [
        {
          "indexed": false,
          "internalType": "uint8",
          "name": "version",
          "type": "uint8"
        }
      ],
      "name": "Initialized",
      "type": "event"
    },
    {
      "anonymous": false,
      "inputs": [
        {
          "indexed": false,
          "internalType": "uint256",
          "name": "gameUUID",
          "type": "uint256"
        },
        {
          "indexed": false,
          "internalType": "uint8",
          "name": "number",
          "type": "uint8"
        }
      ],
      "name": "NumberDrawn",
      "type": "event"
    },
    {
      "anonymous": false,
      "inputs": [
        {
          "indexed": false,
          "internalType": "uint256",
          "name": "gameUUID",
          "type": "uint256"
        },
        {
          "indexed": true,
          "internalType": "address",
          "name": "winner",
          "type": "address"
        },
        {
          "indexed": false,
          "internalType": "uint256",
          "name": "awardAmount",
          "type": "uint256"
        }
      ],
      "name": "WinningsDistributed",
      "type": "event"
    },
    {
      "inputs": [],
      "name": "bingoBoardNFT",
      "outputs": [
        {
          "internalType": "contract BingoBoardNFT",
          "name": "",
          "type": "address"
        }
      ],
      "stateMutability": "view",
      "type": "function"
    },
    {
      "inputs": [],
      "name": "bingoSBT",
      "outputs": [
        {
          "internalType": "contract IBingoSBT",
          "name": "",
          "type": "address"
        }
      ],
      "stateMutability": "view",
      "type": "function"
    },
    {
      "inputs": [
        {
          "internalType": "uint256",
          "name": "tokenId",
          "type": "uint256"
        }
      ],
      "name": "claimBingo",
      "outputs": [
        {
          "internalType": "bool",
          "name": "isBingo",
          "type": "bool"
        }
      ],
      "stateMutability": "nonpayable",
      "type": "function"
    },
    {
      "inputs": [],
      "name": "drawNumber",
      "outputs": [],
      "stateMutability": "nonpayable",
      "type": "function"
    },
    {
      "inputs": [],
      "name": "drawTimeIntervalSec",
      "outputs": [
        {
          "internalType": "uint256",
          "name": "",
          "type": "uint256"
        }
      ],
      "stateMutability": "view",
      "type": "function"
    },
    {
      "inputs": [],
      "name": "getDrawnNumbers",
      "outputs": [
        {
          "internalType": "uint8[]",
          "name": "",
          "type": "uint8[]"
        }
      ],
      "stateMutability": "view",
      "type": "function"
    },
    {
      "inputs": [],
      "name": "getWinnings",
      "outputs": [],
      "stateMutability": "nonpayable",
      "type": "function"
    },
    {
      "inputs": [
        {
          "internalType": "address",
          "name": "bingoBoardNFT_",
          "type": "address"
        },
        {
          "internalType": "address",
          "name": "bingoSBT_",
          "type": "address"
        },
        {
          "internalType": "uint256",
          "name": "gameUUID_",
          "type": "uint256"
        },
        {
          "internalType": "uint256",
          "name": "drawTimeIntervalSec_",
          "type": "uint256"
        }
      ],
      "name": "init",
      "outputs": [],
      "stateMutability": "payable",
      "type": "function"
    },
    {
      "inputs": [],
      "name": "isGameComplete",
      "outputs": [
        {
          "internalType": "bool",
          "name": "",
          "type": "bool"
        }
      ],
      "stateMutability": "view",
      "type": "function"
    }
  ],
  "bytecode": "0x60806040523480156200001157600080fd5b506040516200304538038062003045833981810160405281019062000037919062000184565b81600260006101000a81548173ffffffffffffffffffffffffffffffffffffffff021916908373ffffffffffffffffffffffffffffffffffffffff16021790555080600360006101000a81548173ffffffffffffffffffffffffffffffffffffffff021916908373ffffffffffffffffffffffffffffffffffffffff1602179055505050620001cb565b600080fd5b600073ffffffffffffffffffffffffffffffffffffffff82169050919050565b6000620000f382620000c6565b9050919050565b60006200010782620000e6565b9050919050565b6200011981620000fa565b81146200012557600080fd5b50565b60008151905062000139816200010e565b92915050565b60006200014c82620000e6565b9050919050565b6200015e816200013f565b81146200016a57600080fd5b50565b6000815190506200017e8162000153565b92915050565b600080604083850312156200019e576200019d620000c1565b5b6000620001ae8582860162000128565b9250506020620001c1858286016200016d565b9150509250929050565b612e6a80620001db6000396000f3fe6080604052600436106100865760003560e01c80638d2eb04f116100595780638d2eb04f1461011457806391110d861461013f578063d80ffb201461016a578063dc7682fc14610181578063dcde2519146101ac57610086565b806337bd9c711461008b57806370b7596b146100b657806377cff22d146100cd578063789c20f9146100e9575b600080fd5b34801561009757600080fd5b506100a06101e9565b6040516100ad9190611b98565b60405180910390f35b3480156100c257600080fd5b506100cb61020f565b005b6100e760048036038101906100e29190611c36565b6105e6565b005b3480156100f557600080fd5b506100fe61074e565b60405161010b9190611cb8565b60405180910390f35b34801561012057600080fd5b506101296107b6565b6040516101369190611ce2565b60405180910390f35b34801561014b57600080fd5b506101546107bc565b6040516101619190611d1e565b60405180910390f35b34801561017657600080fd5b5061017f6107e2565b005b34801561018d57600080fd5b50610196610a65565b6040516101a39190611e04565b60405180910390f35b3480156101b857600080fd5b506101d360048036038101906101ce9190611e26565b610ac5565b6040516101e09190611cb8565b60405180910390f35b600360009054906101000a900473ffffffffffffffffffffffffffffffffffffffff1681565b60b4600c5461021e9190611e82565b421161025f576040517f08c379a000000000000000000000000000000000000000000000000000000000815260040161025690611f5b565b60405180910390fd5b6000600760003373ffffffffffffffffffffffffffffffffffffffff1673ffffffffffffffffffffffffffffffffffffffff16815260200190815260200160002060010154116102e4576040517f08c379a00000000000000000000000000000000000000000000000000000000081526004016102db90611fc7565b60405180910390fd5b600760003373ffffffffffffffffffffffffffffffffffffffff1673ffffffffffffffffffffffffffffffffffffffff16815260200190815260200160002060000160009054906101000a900460ff1615610374576040517f08c379a000000000000000000000000000000000000000000000000000000000815260040161036b90612033565b60405180910390fd5b60006009541415610394576008544761038d9190612082565b6009819055505b6000600954600760003373ffffffffffffffffffffffffffffffffffffffff1673ffffffffffffffffffffffffffffffffffffffff168152602001908152602001600020600101546103e691906120b3565b905060004782106103f757476103f9565b815b905060003373ffffffffffffffffffffffffffffffffffffffff16826040516104219061213e565b60006040518083038185875af1925050503d806000811461045e576040519150601f19603f3d011682016040523d82523d6000602084013e610463565b606091505b50509050806104a7576040517f08c379a000000000000000000000000000000000000000000000000000000000815260040161049e9061219f565b60405180910390fd5b600360009054906101000a900473ffffffffffffffffffffffffffffffffffffffff1673ffffffffffffffffffffffffffffffffffffffff1663d0def521336040518263ffffffff1660e01b815260040161050291906121f1565b600060405180830381600087803b15801561051c57600080fd5b505af1158015610530573d6000803e3d6000fd5b505050506001600760003373ffffffffffffffffffffffffffffffffffffffff1673ffffffffffffffffffffffffffffffffffffffff16815260200190815260200160002060000160006101000a81548160ff0219169083151502179055503373ffffffffffffffffffffffffffffffffffffffff167fd045461de0c2674bd3b698dce4742980fb0a158169b17eba4c9362fd80855c91600d54846040516105d992919061221f565b60405180910390a2505050565b60006105f26001611080565b90508015610616576001600060016101000a81548160ff0219169083151502179055505b610639604051806060016040528060288152602001612e0d602891393034611170565b4260066000018190555084600260006101000a81548173ffffffffffffffffffffffffffffffffffffffff021916908373ffffffffffffffffffffffffffffffffffffffff16021790555083600360006101000a81548173ffffffffffffffffffffffffffffffffffffffff021916908373ffffffffffffffffffffffffffffffffffffffff16021790555082600d81905550816001819055506001600e60006101000a81548160ff02191690831515021790555080156107475760008060016101000a81548160ff0219169083151502179055507f7f26b83ff96e1f2b6a682f133852f6798a09c465da95921460cefb3847402498600160405161073e9190612283565b60405180910390a15b5050505050565b6000600e60009054906101000a900460ff1661079f576040517f08c379a000000000000000000000000000000000000000000000000000000000815260040161079690612310565b60405180910390fd5b60b4600c546107ae9190611e82565b421115905090565b60015481565b600260009054906101000a900473ffffffffffffffffffffffffffffffffffffffff1681565b600e60009054906101000a900460ff16610831576040517f08c379a000000000000000000000000000000000000000000000000000000000815260040161082890612310565b60405180910390fd5b6108866040518060400160405280601381526020017f647261774e756d626572282573292040202573000000000000000000000000008152506001610876600461120f565b6108809190611e82565b30611220565b6000600854146108cb576040517f08c379a00000000000000000000000000000000000000000000000000000000081526004016108c2906123a2565b60405180910390fd5b600154600b546108db9190611e82565b42101561091d576040517f08c379a00000000000000000000000000000000000000000000000000000000081526004016109149061240e565b60405180910390fd5b604b60ff1661092c600461120f565b1061096c576040517f08c379a00000000000000000000000000000000000000000000000000000000081526004016109639061247a565b60405180910390fd5b60005b6001604b60ff1661098060066112bf565b61098a919061249a565b6109949190611e82565b90506109aa81600461130f90919063ffffffff16565b61096f57600160ff168160ff16101580156109cc5750604b60ff168160ff1611155b610a0b576040517f08c379a0000000000000000000000000000000000000000000000000000000008152600401610a029061253d565b60405180910390fd5b610a1f81600461133890919063ffffffff16565b507fb0a6375598adc97ecc0e68a79b996c855a6162b31d15b877cfb761ec314ce7f2600d5482604051610a5392919061256c565b60405180910390a142600b8190555050565b6060600e60009054906101000a900460ff16610ab6576040517f08c379a0000000000000000000000000000000000000000000000000000000008152600401610aad90612310565b60405180910390fd5b610ac060046113ca565b905090565b6000600e60009054906101000a900460ff16610b16576040517f08c379a0000000000000000000000000000000000000000000000000000000008152600401610b0d90612310565b60405180910390fd5b610b546040518060400160405280600c81526020017f636c61696d42696e676f2829000000000000000000000000000000000000000081525061144c565b600a600083815260200190815260200160002060009054906101000a900460ff1615610bb5576040517f08c379a0000000000000000000000000000000000000000000000000000000008152600401610bac90612607565b60405180910390fd5b3373ffffffffffffffffffffffffffffffffffffffff16600260009054906101000a900473ffffffffffffffffffffffffffffffffffffffff1673ffffffffffffffffffffffffffffffffffffffff16636352211e846040518263ffffffff1660e01b8152600401610c279190611ce2565b60206040518083038186803b158015610c3f57600080fd5b505afa158015610c53573d6000803e3d6000fd5b505050506040513d601f19601f82011682018060405250810190610c77919061263c565b73ffffffffffffffffffffffffffffffffffffffff1614610ccd576040517f08c379a0000000000000000000000000000000000000000000000000000000008152600401610cc4906126db565b60405180910390fd5b600260009054906101000a900473ffffffffffffffffffffffffffffffffffffffff1673ffffffffffffffffffffffffffffffffffffffff1663409bec3783600d546040518363ffffffff1660e01b8152600401610d2c92919061221f565b60206040518083038186803b158015610d4457600080fd5b505afa158015610d58573d6000803e3d6000fd5b505050506040513d601f19601f82011682018060405250810190610d7c9190612727565b610dbb576040517f08c379a0000000000000000000000000000000000000000000000000000000008152600401610db2906127c6565b60405180910390fd5b60006008541480610dd9575060b4600c54610dd69190611e82565b42105b610e18576040517f08c379a0000000000000000000000000000000000000000000000000000000008152600401610e0f90612832565b60405180910390fd5b6000600260009054906101000a900473ffffffffffffffffffffffffffffffffffffffff1673ffffffffffffffffffffffffffffffffffffffff16639c15a85f846040518263ffffffff1660e01b8152600401610e759190611ce2565b6103606040518083038186803b158015610e8e57600080fd5b505afa158015610ea2573d6000803e3d6000fd5b505050506040513d601f19601f82011682018060405250810190610ec69190612a97565b9050610ed1816114e5565b80610ee15750610ee081611640565b5b80610ef15750610ef0816116d3565b5b1561103f57600191506000600c541415610f0d5742600c819055505b600760003373ffffffffffffffffffffffffffffffffffffffff1673ffffffffffffffffffffffffffffffffffffffff1681526020019081526020016000206001016000815480929190610f6090612ac5565b919050555060086000815480929190610f7890612ac5565b91905055506001600a600085815260200190815260200160002060006101000a81548160ff0219169083151502179055503373ffffffffffffffffffffffffffffffffffffffff167fa5cd192dd079cae7c5c23b19901406a75de1892ee01d45168c1254f1f4e24a8e600d54604051610ff19190611ce2565b60405180910390a261103a6040518060400160405280601b81526020017f546f74616c2057696e6e657273205369676e65642075703a202573000000000081525060085461191b565b61107a565b6040517f08c379a000000000000000000000000000000000000000000000000000000000815260040161107190612b80565b60405180910390fd5b50919050565b60008060019054906101000a900460ff16156110f75760018260ff161480156110af57506110ad306119b7565b155b6110ee576040517f08c379a00000000000000000000000000000000000000000000000000000000081526004016110e590612c12565b60405180910390fd5b6000905061116b565b8160ff1660008054906101000a900460ff1660ff161061114c576040517f08c379a000000000000000000000000000000000000000000000000000000000815260040161114390612c12565b60405180910390fd5b816000806101000a81548160ff021916908360ff160217905550600190505b919050565b61120a83838360405160240161118893929190612ca9565b6040516020818303038152906040527f07c81217000000000000000000000000000000000000000000000000000000007bffffffffffffffffffffffffffffffffffffffffffffffffffffffff19166020820180517bffffffffffffffffffffffffffffffffffffffffffffffffffffffff83818316178352505050506119da565b505050565b600081600001805490509050919050565b6112ba83838360405160240161123893929190612ce7565b6040516020818303038152906040527fe3849f79000000000000000000000000000000000000000000000000000000007bffffffffffffffffffffffffffffffffffffffffffffffffffffffff19166020820180517bffffffffffffffffffffffffffffffffffffffffffffffffffffffff83818316178352505050506119da565b505050565b60008082600001546040516020016112d79190612d46565b6040516020818303038152906040528051906020012060001c9050826000016000815480929190600101919050555080915050919050565b6000808360010160008460ff1660ff168152602001908152602001600020541415905092915050565b6000611344838361130f565b6113bf57826000018290806001815401808255809150506001900390600052602060002090602091828204019190069091909190916101000a81548160ff021916908360ff16021790555082600001805490508360010160008460ff1660ff16815260200190815260200160002081905550600190506113c4565b600090505b92915050565b60608160000180548060200260200160405190810160405280929190818152602001828054801561144057602002820191906000526020600020906000905b82829054906101000a900460ff1660ff16815260200190600101906020826000010492830192600103820291508084116114095790505b50505050509050919050565b6114e2816040516024016114609190612d61565b6040516020818303038152906040527f41304fac000000000000000000000000000000000000000000000000000000007bffffffffffffffffffffffffffffffffffffffffffffffffffffffff19166020820180517bffffffffffffffffffffffffffffffffffffffffffffffffffffffff83818316178352505050506119da565b50565b600080600090505b60058160ff1610156116355761152b83604001518260ff166005811061151657611515612d83565b5b6020020151600461130f90919063ffffffff16565b8015611565575061156483606001518260ff166005811061154f5761154e612d83565b5b6020020151600461130f90919063ffffffff16565b5b801561159f575061159e83608001518260ff166005811061158957611588612d83565b5b6020020151600461130f90919063ffffffff16565b5b80156115d957506115d88360a001518260ff16600581106115c3576115c2612d83565b5b6020020151600461130f90919063ffffffff16565b5b801561161357506116128360c001518260ff16600581106115fd576115fc612d83565b5b6020020151600461130f90919063ffffffff16565b5b1561162257600191505061163b565b808061162d90612db2565b9150506114ed565b50600090505b919050565b600061164f8260400151611a03565b1561165d57600190506116ce565b61166a8260600151611a03565b1561167857600190506116ce565b6116858260800151611a03565b1561169357600190506116ce565b6116a08260a00151611a03565b156116ae57600190506116ce565b6116bb8260c00151611a03565b156116c957600190506116ce565b600090505b919050565b600061170582604001516000600581106116f0576116ef612d83565b5b6020020151600461130f90919063ffffffff16565b801561173d575061173c826060015160016005811061172757611726612d83565b5b6020020151600461130f90919063ffffffff16565b5b80156117755750611774826080015160026005811061175f5761175e612d83565b5b6020020151600461130f90919063ffffffff16565b5b80156117ad57506117ac8260a0015160036005811061179757611796612d83565b5b6020020151600461130f90919063ffffffff16565b5b80156117e557506117e48260c001516004600581106117cf576117ce612d83565b5b6020020151600461130f90919063ffffffff16565b5b156117f35760019050611916565b611823826040015160046005811061180e5761180d612d83565b5b6020020151600461130f90919063ffffffff16565b801561185b575061185a826060015160036005811061184557611844612d83565b5b6020020151600461130f90919063ffffffff16565b5b80156118935750611892826080015160026005811061187d5761187c612d83565b5b6020020151600461130f90919063ffffffff16565b5b80156118cb57506118ca8260a001516001600581106118b5576118b4612d83565b5b6020020151600461130f90919063ffffffff16565b5b801561190357506119028260c001516000600581106118ed576118ec612d83565b5b6020020151600461130f90919063ffffffff16565b5b156119115760019050611916565b600090505b919050565b6119b38282604051602401611931929190612ddc565b6040516020818303038152906040527f9710a9d0000000000000000000000000000000000000000000000000000000007bffffffffffffffffffffffffffffffffffffffffffffffffffffffff19166020820180517bffffffffffffffffffffffffffffffffffffffffffffffffffffffff83818316178352505050506119da565b5050565b6000808273ffffffffffffffffffffffffffffffffffffffff163b119050919050565b60008151905060006a636f6e736f6c652e6c6f679050602083016000808483855afa5050505050565b6000611a3182600060058110611a1c57611a1b612d83565b5b6020020151600461130f90919063ffffffff16565b8015611a655750611a6482600160058110611a4f57611a4e612d83565b5b6020020151600461130f90919063ffffffff16565b5b8015611a995750611a9882600260058110611a8357611a82612d83565b5b6020020151600461130f90919063ffffffff16565b5b8015611acd5750611acc82600360058110611ab757611ab6612d83565b5b6020020151600461130f90919063ffffffff16565b5b8015611b015750611b0082600460058110611aeb57611aea612d83565b5b6020020151600461130f90919063ffffffff16565b5b15611b0f5760019050611b14565b600090505b919050565b600073ffffffffffffffffffffffffffffffffffffffff82169050919050565b6000819050919050565b6000611b5e611b59611b5484611b19565b611b39565b611b19565b9050919050565b6000611b7082611b43565b9050919050565b6000611b8282611b65565b9050919050565b611b9281611b77565b82525050565b6000602082019050611bad6000830184611b89565b92915050565b6000604051905090565b600080fd5b6000611bcd82611b19565b9050919050565b611bdd81611bc2565b8114611be857600080fd5b50565b600081359050611bfa81611bd4565b92915050565b6000819050919050565b611c1381611c00565b8114611c1e57600080fd5b50565b600081359050611c3081611c0a565b92915050565b60008060008060808587031215611c5057611c4f611bbd565b5b6000611c5e87828801611beb565b9450506020611c6f87828801611beb565b9350506040611c8087828801611c21565b9250506060611c9187828801611c21565b91505092959194509250565b60008115159050919050565b611cb281611c9d565b82525050565b6000602082019050611ccd6000830184611ca9565b92915050565b611cdc81611c00565b82525050565b6000602082019050611cf76000830184611cd3565b92915050565b6000611d0882611b65565b9050919050565b611d1881611cfd565b82525050565b6000602082019050611d336000830184611d0f565b92915050565b600081519050919050565b600082825260208201905092915050565b6000819050602082019050919050565b600060ff82169050919050565b611d7b81611d65565b82525050565b6000611d8d8383611d72565b60208301905092915050565b6000602082019050919050565b6000611db182611d39565b611dbb8185611d44565b9350611dc683611d55565b8060005b83811015611df7578151611dde8882611d81565b9750611de983611d99565b925050600181019050611dca565b5085935050505092915050565b60006020820190508181036000830152611e1e8184611da6565b905092915050565b600060208284031215611e3c57611e3b611bbd565b5b6000611e4a84828501611c21565b91505092915050565b7f4e487b7100000000000000000000000000000000000000000000000000000000600052601160045260246000fd5b6000611e8d82611c00565b9150611e9883611c00565b9250827fffffffffffffffffffffffffffffffffffffffffffffffffffffffffffffffff03821115611ecd57611ecc611e53565b5b828201905092915050565b600082825260208201905092915050565b7f42696e676f2054696520496e74657276616c206d75737420626520657870697260008201527f6564000000000000000000000000000000000000000000000000000000000000602082015250565b6000611f45602283611ed8565b9150611f5082611ee9565b604082019050919050565b60006020820190508181036000830152611f7481611f38565b9050919050565b7f4f6e6c792077696e6e6572732063616e2067657457696e6e696e677328290000600082015250565b6000611fb1601e83611ed8565b9150611fbc82611f7b565b602082019050919050565b60006020820190508181036000830152611fe081611fa4565b9050919050565b7f57696e6e65722063616e206e6f74206265207061696420747769636500000000600082015250565b600061201d601c83611ed8565b915061202882611fe7565b602082019050919050565b6000602082019050818103600083015261204c81612010565b9050919050565b7f4e487b7100000000000000000000000000000000000000000000000000000000600052601260045260246000fd5b600061208d82611c00565b915061209883611c00565b9250826120a8576120a7612053565b5b828204905092915050565b60006120be82611c00565b91506120c983611c00565b9250817fffffffffffffffffffffffffffffffffffffffffffffffffffffffffffffffff048311821515161561210257612101611e53565b5b828202905092915050565b600081905092915050565b50565b600061212860008361210d565b915061213382612118565b600082019050919050565b60006121498261211b565b9150819050919050565b7f5061796d656e7420746f2077696e6e6572206661696c65640000000000000000600082015250565b6000612189601883611ed8565b915061219482612153565b602082019050919050565b600060208201905081810360008301526121b88161217c565b9050919050565b6121c881611bc2565b82525050565b60006121db600083611ed8565b91506121e682612118565b600082019050919050565b600060408201905061220660008301846121bf565b8181036020830152612217816121ce565b905092915050565b60006040820190506122346000830185611cd3565b6122416020830184611cd3565b9392505050565b6000819050919050565b600061226d61226861226384612248565b611b39565b611d65565b9050919050565b61227d81612252565b82525050565b60006020820190506122986000830184612274565b92915050565b7f42696e676f47616d6520436c6f6e65206d75737420626520696e697469616c6960008201527f7a65640000000000000000000000000000000000000000000000000000000000602082015250565b60006122fa602383611ed8565b91506123058261229e565b604082019050919050565b60006020820190508181036000830152612329816122ed565b9050919050565b7f43616e206f6e6c7920647261774e756d626572207768656e207468657265206160008201527f7265206e6f2077696e6e65727300000000000000000000000000000000000000602082015250565b600061238c602d83611ed8565b915061239782612330565b604082019050919050565b600060208201905081810360008301526123bb8161237f565b9050919050565b7f4e6f7420726561647920746f20647261772061206e756d626572207965740000600082015250565b60006123f8601e83611ed8565b9150612403826123c2565b602082019050919050565b60006020820190508181036000830152612427816123eb565b9050919050565b7f4e6f206d6f72652076616c6964206e756d6265727320746f2064726177000000600082015250565b6000612464601d83611ed8565b915061246f8261242e565b602082019050919050565b6000602082019050818103600083015261249381612457565b9050919050565b60006124a582611c00565b91506124b083611c00565b9250826124c0576124bf612053565b5b828206905092915050565b7f647261774e756d62657228292064726577206e756d626572206f75747369646560008201527f2076616c69642072616e67650000000000000000000000000000000000000000602082015250565b6000612527602c83611ed8565b9150612532826124cb565b604082019050919050565b600060208201905081810360008301526125568161251a565b9050919050565b61256681611d65565b82525050565b60006040820190506125816000830185611cd3565b61258e602083018461255d565b9392505050565b7f43616e6e6f7420636c61696d2062696e676f206d756c7469706c652074696d6560008201527f7320666f72207468652073616d6520626f617264000000000000000000000000602082015250565b60006125f1603483611ed8565b91506125fc82612595565b604082019050919050565b60006020820190508181036000830152612620816125e4565b9050919050565b60008151905061263681611bd4565b92915050565b60006020828403121561265257612651611bbd565b5b600061266084828501612627565b91505092915050565b7f4f6e6c792074686520626f617264206f776e65722063616e207573652074686960008201527f7320746f6b656e49640000000000000000000000000000000000000000000000602082015250565b60006126c5602983611ed8565b91506126d082612669565b604082019050919050565b600060208201905081810360008301526126f4816126b8565b9050919050565b61270481611c9d565b811461270f57600080fd5b50565b600081519050612721816126fb565b92915050565b60006020828403121561273d5761273c611bbd565b5b600061274b84828501612712565b91505092915050565b7f43616e206f6e6c7920636c61696d2042696e676f206f6e20746869732067616d60008201527f6573206361726473000000000000000000000000000000000000000000000000602082015250565b60006127b0602883611ed8565b91506127bb82612754565b604082019050919050565b600060208201905081810360008301526127df816127a3565b9050919050565b7f636c61696d42696e676f2074696520696e74657276616c206578706972656400600082015250565b600061281c601f83611ed8565b9150612827826127e6565b602082019050919050565b6000602082019050818103600083015261284b8161280f565b9050919050565b600080fd5b6000601f19601f8301169050919050565b7f4e487b7100000000000000000000000000000000000000000000000000000000600052604160045260246000fd5b6128a082612857565b810181811067ffffffffffffffff821117156128bf576128be612868565b5b80604052505050565b60006128d2611bb3565b90506128de8282612897565b919050565b6000815190506128f281611c0a565b92915050565b600080fd5b600067ffffffffffffffff82111561291857612917612868565b5b602082029050919050565b600080fd5b61293181611d65565b811461293c57600080fd5b50565b60008151905061294e81612928565b92915050565b6000612967612962846128fd565b6128c8565b9050806020840283018581111561298157612980612923565b5b835b818110156129aa5780612996888261293f565b845260208401935050602081019050612983565b5050509392505050565b600082601f8301126129c9576129c86128f8565b5b60056129d6848285612954565b91505092915050565b600061036082840312156129f6576129f5612852565b5b612a0060e06128c8565b90506000612a10848285016128e3565b6000830152506020612a24848285016128e3565b6020830152506040612a38848285016129b4565b60408301525060e0612a4c848285016129b4565b606083015250610180612a61848285016129b4565b608083015250610220612a76848285016129b4565b60a0830152506102c0612a8b848285016129b4565b60c08301525092915050565b60006103608284031215612aae57612aad611bbd565b5b6000612abc848285016129df565b91505092915050565b6000612ad082611c00565b91507fffffffffffffffffffffffffffffffffffffffffffffffffffffffffffffffff821415612b0357612b02611e53565b5b600182019050919050565b7f436c61696d2042696e676f204661696c65642c2077696e20636f6e646974696f60008201527f6e206e6f74206d65740000000000000000000000000000000000000000000000602082015250565b6000612b6a602983611ed8565b9150612b7582612b0e565b604082019050919050565b60006020820190508181036000830152612b9981612b5d565b9050919050565b7f496e697469616c697a61626c653a20636f6e747261637420697320616c72656160008201527f647920696e697469616c697a6564000000000000000000000000000000000000602082015250565b6000612bfc602e83611ed8565b9150612c0782612ba0565b604082019050919050565b60006020820190508181036000830152612c2b81612bef565b9050919050565b600081519050919050565b60005b83811015612c5b578082015181840152602081019050612c40565b83811115612c6a576000848401525b50505050565b6000612c7b82612c32565b612c858185611ed8565b9350612c95818560208601612c3d565b612c9e81612857565b840191505092915050565b60006060820190508181036000830152612cc38186612c70565b9050612cd260208301856121bf565b612cdf6040830184611cd3565b949350505050565b60006060820190508181036000830152612d018186612c70565b9050612d106020830185611cd3565b612d1d60408301846121bf565b949350505050565b6000819050919050565b612d40612d3b82611c00565b612d25565b82525050565b6000612d528284612d2f565b60208201915081905092915050565b60006020820190508181036000830152612d7b8184612c70565b905092915050565b7f4e487b7100000000000000000000000000000000000000000000000000000000600052603260045260246000fd5b6000612dbd82611d65565b915060ff821415612dd157612dd0611e53565b5b600182019050919050565b60006040820190508181036000830152612df68185612c70565b9050612e056020830184611cd3565b939250505056fe42696e676f47616d652825732920696e69742043414c4c45442c206d73672e76616c756528257329a2646970667358221220048eca0a14179e39319c2fb9a68fd93fca25af801f36039a3ac95cb8535b3df964736f6c63430008090033",
  "linkReferences": {},
  "deployedLinkReferences": {}
}